S01E000062696E2F64656D6F70726F675F73746D3332683734332E7372656323
S3150802000000000220A9040208F9040208F9040208F9
S31508020010F9040208F9040208F904020800000000BB
S31508020020000000000000000000000000F9040208B9
S31508020030F904020800000000F90402087F0A02080F
S31508020040F9040208F9040208F9040208F904020884
S31508020050F9040208F9040208F9040208F904020874
S31508020060F9040208F9040208F9040208F904020864
S31508020070F9040208F9040208F9040208F904020854
S31508020080F9040208F9040208F9040208F904020844
S31508020090F9040208F9040208F9040208F904020834
S315080200A0F9040208F9040208F9040208F904020824
S315080200B0F9040208F9040208F9040208F904020814
S315080200C0F9040208F9040208F9040208F904020804
S315080200D0F9040208F9040208F9040208F9040208F4
S315080200E0F9040208F904020800000000F9040208EB
S315080200F0F9040208F9040208F9040208F9040208D4
S31508020100F9040208F9040208F9040208F9040208C3
S31508020110F9040208F9040208F9040208F9040208B3
S31508020120F9040208F9040208F9040208F9040208A3
S31508020130F9040208F9040208F9040208F904020893
S31508020140000000000000000000000000000000009F
S31508020150F9040208F9040208F9040208F904020873
S31508020160F9040208F9040208F9040208F904020863
S31508020170F9040208F9040208F9040208000000005A
S31508020180F9040208F9040208F9040208F904020843
S31508020190F9040208F9040208F9040208F904020833
S315080201A0F9040208F9040208F9040208F904020823
S315080201B0F9040208F9040208F9040208F904020813
S315080201C0F9040208F9040208F9040208F904020803
S315080201D0F9040208F9040208F9040208F9040208F3
S315080201E0F9040208F9040208F9040208F9040208E3
S315080201F0F9040208F9040208F9040208F9040208D3
S31508020200F9040208F9040208F9040208F9040208C2
S31508020210F9040208F9040208F9040208F9040208B2
S31508020220F9040208F9040208F904020800000000A9
S31508020230F9040208F904020800000000F904020899
S31508020240F9040208F9040208F9040208F904020882
S31508020250F9040208F9040208F9040208F904020872
S31508020260F9040208F9040208F9040208F904020862
S31508020270F9040208F9040208F90402080000000059
S31508020280F904020800000000F90402080000000050
S3110802029000000000F9040208EE11AA554D
S3150802029C10B5054C237833B9044B13B10448AFF3A4
S315080202AC00800123237010BD3C04002400000000CA
S315080202BCB431020808B5034B1BB103490348AFF323
S315080202CC008008BD0000000040040024B431020876
S315080202DC70B50D4E0D4D761BB61006D000240134A2
S315080202EC55F8043B9847A642F9D1094E094D761B97
S315080202FC02F05AFFB61006D00024013455F8043B16
S3150802030C9847A642F9D170BDE0310208E0310208DD
S3150802031CE8310208E0310208F0B4860746D0541ECA
S3150802032C002A3CD0CAB2034602E014F1FF3436D393
S3150802033C03F8012B9D07F8D1032C29D9CDB245EA2E
S3150802034C05250F2C45EA054533D9A4F110063609BD
S3150802035C03F1200707EB061703F1100242E90455CD
S3150802036C42E902551032BA42F8D1721C14F00C0F3B
S3150802037C03EB021204F00F0613D0331F23F0030308
S3150802038C0433134442F8045B9342FBD106F003048C
S3150802039C2CB1C9B21C4403F8011B9C42FBD1F0BC1C
S315080203AC704734461346002CF3D1F8E71446034635
S315080203BCC2E71A462646E0E7024B13B1024800F09A
S315080203CC05B8704700000000E50302080023014641
S315080203DC1A46184600F01EB838B50A4C0A4D641B64
S315080203ECA4100AD004F18043013B05EB8305013CBA
S315080203FC55F804399847002CF9D1BDE8384002F073
S3150802040CD9BE00BFEC310208E8310208704700BFBA
S3150802041C704700BF2DE9F0411E4C054620689046F0
S3150802042C1F460E46FFF7F2FF1B4B1A68D2F84831E5
S3150802043C33B35A6820681F2A27DC4DB9911C01323E
S3150802044C5A6043F82160FFF7E3FF0020BDE8F0810C
S3150802045C03EB82010124C1F8888004FA02FED3F860
S3150802046C8841022D44EA0E0CC3F888C1C1F80871FA
S3150802047CE4D1D3F88C114EEA0104C3F88C41DDE7BA
S3150802048C02F5A673C2F84831D3E7FFF7C1FF4FF05E
S3150802049CFF30DBE728040024CC310208DFF834D01D
S315080204AC002103E00C4B5B58435004310B480C4BB0
S315080204BC42189A42F6D30B4A02E0002342F8043B4E
S315080204CC094B9A42F9D302F00DFEFFF701FF00F031
S315080204DCB9F8704700000220EC310208000000242B
S315080204EC3C0400243C04002484040024FEE7000097
S315080204FC80B582B000AF00F023F8034683F00103FF
S3150802050CDBB2002B13D00C4B0C4A1A6000237B600F
S3150802051C08E0094A7B681344043300221A707B6884
S3150802052C01337B607B68372BF3D900F023F800BFC5
S3150802053C0837BD4680BD00BF00000038A2E742CE90
S3150802054C80B582B000AF0023FB71084B1B68084AC2
S3150802055C934206D100F01AF80346002B01D0012368
S3150802056CFB71FB7918460837BD4680BD000000387A
S3150802057CA2E742CE80B500AF00F01EF803461A4633
S3150802058C014B9A8700BF80BD0000003880B582B047
S3150802059C00AF0023FB7100F00FF803461A46054B11
S315080205AC9B8F9A4201D10123FB71FB7918460837B6
S315080205BCBD4680BD0000003880B483B000AF00236E
S315080205CCFB801F4B1B68DBB29AB2FB881344FB8079
S315080205DC1B4B1B681B0ADBB29AB2FB881344FB80C3
S315080205EC174B1B681B0CDBB29AB2FB881344FB80B5
S315080205FC134B1B681B0EDBB29AB2FB881344FB80A7
S3150802060C00233B600BE00E4A3B68134404331B7809
S3150802061C9AB2FB881344FB803B6801333B603B6808
S3150802062C372BF0D9FB88DB43FB80FB880133FB8035
S3150802063CFB8818460C37BD465DF8047B704700BF2D
S3150802064C0000003880B500AF00F005F8FFF750FF40
S3150802065C00F0D0F9FCE780B500AF00F00BF800F01B
S3150802066C03FD00F015F800F0E3F900F0B7F900BF46
S3150802067C80BD000080B400AF034B044A9A6000BFE9
S3150802068CBD465DF8047B704700ED00E000000208E9
S3150802069C80B5CCB000AF07F1E4034C220021184612
S315080206ACFFF73AFE07F1C403202200211846FFF78A
S315080206BC33FE07F108031846BC231A460021FFF736
S315080206CC2BFE022001F076FC3B1D00221A603F4BE2
S315080206DCDB6A3E4A23F00103D3623C4BDB6A03F026
S315080206EC01023B1D1A603A4B9B6923F44043384A74
S315080206FC43F480439361364B9B6903F440423B1D9A
S3150802070C1A603B1D1B6800BF314B9B6903F40053EF
S3150802071CB3F5005FF8D10223C7F8E4300123C7F812
S3150802072CF03000F02FFD024641F203039A4201D83B
S3150802073C202300E04023C7F8F4300023C7F8083119
S3150802074C07F1E403184600F029FD0346002B00D0F6
S3150802075CFEE73F23C7F8C4300023C7F8C830002386
S3150802076CC7F8CC300023C7F8D0300023C7F8D430EA
S3150802077C0023C7F8D8300023C7F8DC300023C7F8A3
S3150802078CE03007F1C4030021184601F0DFF80346EE
S3150802079C002B00D0FEE707F108030E4A1A6007F190
S315080207AC080300221A6507F1080303225A6707F1A0
S315080207BC0803184601F038FC0346002B00D0FEE766
S315080207CC00BF07F59877BD4680BD00BF00040058E8
S315080207DC004802580200008080B592B000AF7B4BED
S315080207ECD3F8F430794A43F00203C2F8F430774B63
S315080207FCD3F8F43003F002033B633B6B734BD3F829
S3150802080CE030724A43F48073C2F8E0306F4BD3F887
S3150802081CE03003F48073FB62FB6A6C4BD3F8E0306E
S3150802082C6A4A43F00203C2F8E030684BD3F8E03068
S3150802083C03F00203BB62BB6A644BD3F8E030634A2B
S3150802084C43F48063C2F8E030604BD3F8E03003F42B
S3150802085C80637B627B6A5D4BD3F8E0305B4A43F07C
S3150802086C4003C2F8E030594BD3F8E03003F04003AA
S3150802087C3B623B6A554BD3F8E030544A43F00803C3
S3150802088CC2F8E030514BD3F8E03003F00803FB61B1
S3150802089CFB694E4BD3F8E0304C4A43F00403C2F8DA
S315080208ACE0304A4BD3F8E03003F00403BB61BB6972
S315080208BC464BD3F8E030454A43F00103C2F8E03020
S315080208CC424BD3F8E03003F001037B617B693F4B63
S315080208DCD3F8E0303D4A43F01003C2F8E0303B4B04
S315080208ECD3F8E03003F010033B613B69374BD3F87E
S315080208FCE030364A43F40073C2F8E030334BD3F88F
S3150802090CE03003F40073FB60FB68304BD3F8E0303D
S3150802091C2E4A43F08003C2F8E0302C4BD3F8E03071
S3150802092C03F08003BB60BB68284BD3F8E030274A38
S3150802093C43F02003C2F8E030244BD3F8E03003F03E
S3150802094C20037B607B68214BD3F8E8301F4A43F4BB
S3150802095C0033C2F8E8301D4BD3F8E83003F4003301
S3150802096C3B603B6801237B630123BB630023FB6368
S3150802097C00233B6407F134031946154800F082F844
S3150802098C00220121124800F02DFA4FF400537B6322
S3150802099C0023BB630023FB6307F1340319460D4896
S315080209AC00F070F860237B630223BB630023FB63AE
S315080209BC03233B6407237B6407F134031946064871
S315080209CC00F060F800BF4837BD4680BD00440258A7
S315080209DC0004025800080258000C025880B500AFF1
S315080209EC00220121024800F0FDF900BF80BD00BFBC
S315080209FC0004025880B582B000AF00F033F8786074
S31508020A0C094B1B687A68D31AB3F5FA7F07D3012107
S31508020A1C064800F000FA044A7B68136000E000BF3F
S31508020A2C0837BD4680BD00BF58040024000402588E
S31508020A3C80B500AF01F0A2FA0246094BA3FB0223CA
S31508020A4C9B09184600F0D9FA042000F0E3FA0022B2
S31508020A5C00214FF0FF3000F0B6FA00BF80BD00BF90
S31508020A6CD34D621080B500AF00F080FB03461846E2
S31508020A7C80BD80B500AF00F065FB00F0E7FA00BF59
S31508020A8C80BD000080B489B000AF7860396000235D
S31508020A9CFB61894B7B6194E13B681A680121FB690E
S31508020AAC01FA03F313403B613B69002B00F0868184
S31508020ABC3B685B68022B03D03B685B68122B23D11D
S31508020ACCFB69DA087B68083253F82230BB61FB698A
S31508020ADC03F007039B000F2202FA03F3DB43BA69FE
S31508020AEC1340BB613B681A69FB6903F007039B0059
S31508020AFC02FA03F3BA691343BB61FB69DA087B682A
S31508020B0C0832B96943F822107B681B68BB61FB691A
S31508020B1C5B00032202FA03F3DB43BA691340BB6197
S31508020B2C3B685B6803F00302FB695B0002FA03F39A
S31508020B3CBA691343BB617B68BA691A603B685B681E
S31508020B4C012B0BD03B685B68022B07D03B685B68B2
S31508020B5C112B03D03B685B68122B30D17B689B68E0
S31508020B6CBB61FB695B00032202FA03F3DB43BA6936
S31508020B7C1340BB613B68DA68FB695B0002FA03F354
S31508020B8CBA691343BB617B68BA699A607B685B680E
S31508020B9CBB610122FB6902FA03F3DB43BA69134010
S31508020BACBB613B685B681B0903F00102FB6902FA2D
S31508020BBC03F3BA691343BB617B68BA695A607B68EB
S31508020BCCDB68BB61FB695B00032202FA03F3DB43B6
S31508020BDCBA691340BB613B689A68FB695B0002FA07
S31508020BEC03F3BA691343BB617B68BA69DA603B687B
S31508020BFC5B6803F08053002B00F0E0802F4BD3F890
S31508020C0CF4302E4A43F00203C2F8F4302B4BD3F8D5
S31508020C1CF43003F00203FB60FB68294AFB699B0864
S31508020C2C023352F82330BB61FB6903F003039B00C2
S31508020C3C0F2202FA03F3DB43BA691340BB617B68E2
S31508020C4C204A934252D07B681F4A934231D07B6822
S31508020C5C1E4A93422BD07B681D4A934225D07B6849
S31508020C6C1C4A93421FD07B681B4A934219D07B6855
S31508020C7C1A4A934213D07B68194A93420DD07B6861
S31508020C8C184A934207D07B68174A934201D1092323
S31508020C9C2DE00A232BE0082329E0072327E0062365
S31508020CAC25E0052323E0042321E003231FE0022386
S31508020CBC1DE001231BE000BF8000005800440258C7
S31508020CCC0004005800000258000402580008025892
S31508020CDC000C025800100258001402580018025848
S31508020CEC001C025800200258002402580023FA69F4
S31508020CFC02F0030292009340BA691343BB61384966
S31508020D0CFB699B080233BA6941F823207B691B6885
S31508020D1CBB613B69DB43BA691340BB613B685B68E1
S31508020D2C03F48033002B03D0BA693B691343BB61C6
S31508020D3C7B69BA691A607B695B68BB613B69DB4391
S31508020D4CBA691340BB613B685B6803F40033002B3A
S31508020D5C03D0BA693B691343BB617B69BA695A60AA
S31508020D6C4FF0B0431B68BB613B69DB43BA6913405E
S31508020D7CBB613B685B6803F48013002B03D0BA692A
S31508020D8C3B691343BB614FF0B042BB6913604FF02A
S31508020D9CB0435B68BB613B69DB43BA691340BB6111
S31508020DAC3B685B6803F40013002B03D0BA693B69F2
S31508020DBC1343BB614FF0B042BB695360FB69013305
S31508020DCCFB613B681A68FB6922FA03F3002B7FF472
S31508020DDC63AE00BF2437BD465DF8047B704700BF7F
S31508020DEC0004005880B483B000AF78600B467B8051
S31508020DFC13467B707B78002B03D07A887B689A61C2
S31508020E0C03E07B881A047B689A6100BF0C37BD46DF
S31508020E1C5DF8047B704780B483B000AF78600B46EC
S31508020E2C7B807B685A697B881A407B889A4204D1F4
S31508020E3C7B881A047B689A6102E07A887B689A61D5
S31508020E4C00BF0C37BD465DF8047B704780B485B08D
S31508020E5C00AF78607B6803F00703FB600B4BDB681B
S31508020E6CBB60BA684FF6FF031340BB60FB681A02F5
S31508020E7CBB681A43064B1343BB60044ABB68D36070
S31508020E8C00BF1437BD465DF8047B704700ED00E0E1
S31508020E9C0000FA0580B400AF044BDB681B0A03F0AA
S31508020EAC07031846BD465DF8047B704700ED00E063
S31508020EBC80B483B000AF03463960FB80B7F90630BD
S31508020ECC002B0BDA3B68DAB20C49FB8803F00F03EA
S31508020EDC043B1201D2B20B441A7609E03B68DAB229
S31508020EEC0749B7F906301201D2B20B4483F800232C
S31508020EFC00BF0C37BD465DF8047B704700ED00E079
S31508020F0C00E100E080B489B000AFF860B9607A609D
S31508020F1CFB6803F00703FB61FB69C3F10703042BA8
S31508020F2C28BF0423BB61FB690433062B02D9FB6970
S31508020F3C033B00E000237B614FF0FF32BB6902FAE8
S31508020F4C03F3DA43BB681A407B699A404FF0FF31C8
S31508020F5C7B6901FA03F3D9437B680B4013431846A2
S31508020F6C2437BD465DF8047B7047000080B582B015
S31508020F7C00AF78607B68013BB3F1807F01D3012314
S31508020F8C0FE00A4A7B68013B53600F214FF0FF3092
S31508020F9CFFF78EFF054B00229A60044B07221A6054
S31508020FAC002318460837BD4680BD00BF10E000E096
S31508020FBC80B582B000AF78607868FFF747FF00BF4C
S31508020FCC0837BD4680BD80B586B000AF0346B9600A
S31508020FDC7A60FB81FFF75EFF78617A68B96878698F
S31508020FECFFF790FF0246B7F90E3011461846FFF77F
S31508020FFC5FFF00BF1837BD4680BD80B582B000AF13
S3150802100C78607868FFF7B2FF034618460837BD467C
S3150802101C80BD000080B483B000AF78607B68042B77
S3150802102C06D1094B1B68084A43F00403136005E012
S3150802103C054B1B68044A23F00403136000BF0C37E4
S3150802104CBD465DF8047B704710E000E080B500AF42
S3150802105C00F002F800BF80BD80B400AF00BFBD46E9
S3150802106C5DF8047B7047000080B500AF0320FFF7DC
S3150802107C9FFF00F00FFE0146134B9B691B0A03F0F8
S3150802108C0F03124AD35C03F01F0321FA03F3104A27
S3150802109C13600F4B1A680C4B9B6903F00F030B4931
S315080210ACCB5C03F01F0322FA03F30A4A13600020EF
S315080210BC00F012F80346002B01D0012302E0FFF7D9
S315080210CC8BFB0023184680BD00440258D031020817
S315080210DC340400243804002480B582B000AF78604A
S315080210EC154B1B78002B01D1012321E0134B1A68EF
S315080210FC114B1B7819464FF47A73B3FBF1F3B2FB17
S3150802110CF3F31846FFF779FF0346002B01D00123A8
S3150802111C0EE07B680F2B0AD8002279684FF0FF3055
S3150802112CFFF751FF064A7B681360002300E0012390
S3150802113C18460837BD4680BD300400243404002402
S3150802114C2C04002480B400AF064B1B781A46064BB7
S3150802115C1B681344044A136000BFBD465DF8047B42
S3150802116C704700BF300400248004002480B400AF0A
S3150802117C034B1B681846BD465DF8047B704700BFD7
S3150802118C8004002480B400AF034B1B681B0C184662
S3150802119CBD465DF8047B70470010005C80B58CB0C8
S315080211AC00AF78607B68002B01D10123C4E37B680E
S315080211BC1B6803F00103002B00F08780A24B1B6906
S315080211CC03F03803FB62A04B9B6ABB62FB6A102BCB
S315080211DC07D0FB6A182B10D1BB6A03F00303022B48
S315080211EC0BD1994B1B6803F40033002B6CD07B682C
S315080211FC5B68002B68D101239EE37B685B68B3F5B9
S3150802120C803F06D1904B1B688F4A43F48033136098
S3150802121C2EE07B685B68002B0CD18B4B1B688A4AC9
S3150802122C23F480331360884B1B68874A23F4802384
S3150802123C13601DE07B685B68B3F5A02F0CD1824B5B
S3150802124C1B68814A43F4802313607F4B1B687E4AD2
S3150802125C43F4803313600BE07B4B1B687A4A23F406
S3150802126C80331360784B1B68774A23F48023136008
S3150802127C7B685B68002B13D0FFF778FF786208E06F
S3150802128CFFF774FF02467B6AD31A642B01D9032330
S3150802129C52E36D4B1B6803F40033002BF0D014E0B9
S315080212ACFFF764FF786208E0FFF760FF02467B6A85
S315080212BCD31A642B01D903233EE3634B1B6803F44D
S315080212CC0033002BF0D100E000BF7B681B6803F0EB
S315080212DC0203002B00F092805B4B1B6903F0380368
S315080212EC3B62594B9B6AFB613B6A002B07D03B6AF4
S315080212FC182B2DD1FB6903F00303002B28D1524B73
S3150802130C1B6803F00403002B05D07B68DB68002BF3
S3150802131C01D1012310E3FFF735FF024641F203031D
S3150802132C9A420AD8484B5B6823F47C327B681B6961
S3150802133C1B03454913434B6060E0434B5B6823F040
S3150802134CFE427B681B691B063F4913434B6055E0FB
S3150802135C7B68DB68002B38D03B4B1B6823F01902E1
S3150802136C7B68DB68384913430B60FFF7FFFE78622C
S3150802137C08E0FFF7FBFE02467B6AD31A022B01D959
S3150802138C0323D9E2304B1B6803F00403002BF0D07D
S3150802139CFFF7F8FE024641F203039A420AD82A4B91
S315080213AC5B6823F47C327B681B691B03264913434F
S315080213BC4B6023E0244B5B6823F0FE427B681B6977
S315080213CC1B06214913434B6018E01F4B1B681E4A28
S315080213DC23F001031360FFF7C9FE786208E0FFF7F2
S315080213ECC5FE02467B6AD31A022B01D90323A3E252
S315080213FC154B1B6803F00403002BF0D17B681B68A2
S3150802140C03F01003002B00F091800F4B1B6903F0BD
S3150802141C3803BB610C4B9B6A7B61BB69082B07D0F3
S3150802142CBB69182B2FD17B6903F00303012B2AD135
S3150802143C054B1B6803F48073002B07D07B68DB69AA
S3150802144C802B03D0012377E200440258FFF79AFE59
S3150802145C024641F203039A420AD8A24B5B6823F06E
S3150802146CF8427B681B6A9B069E4913434B605DE0F8
S3150802147C9C4BDB6823F07C527B681B6A1B069949DA
S3150802148C1343CB6052E07B68DB69002B35D0954B56
S3150802149C1B68944A43F080031360FFF767FE786271
S315080214AC08E0FFF763FE02467B6AD31A022B01D9C0
S315080214BC032341E28B4B1B6803F48073002BF0D099
S315080214CCFFF760FE024641F203039A420AD8854B9D
S315080214DC5B6823F0F8427B681B6A9B0681491343B7
S315080214EC4B6023E07F4BDB6823F07C527B681B6ADC
S315080214FC1B067C491343CB6018E07A4B1B68794A66
S3150802150C23F080031360FFF731FE786208E0FFF7D9
S3150802151C2DFE02467B6AD31A022B01D903230BE250
S3150802152C704B1B6803F48073002BF0D17B681B6825
S3150802153C03F00803002B36D07B685B69002B19D0A5
S3150802154C684B5B6F674A43F001035367FFF70EFE5E
S3150802155C786208E0FFF70AFE02467B6AD31A022B68
S3150802156C01D90323E8E15F4B5B6F03F00203002BFF
S3150802157CF0D018E05B4B5B6F5A4A23F001035367B2
S3150802158CFFF7F4FD786208E0FFF7F0FD02467B6A86
S3150802159CD31A022B01D90323CEE1524B5B6F03F00C
S315080215AC0203002BF0D17B681B6803F02003002B87
S315080215BC36D07B689B69002B19D04A4B1B68494A63
S315080215CC43F480531360FFF7D1FD786208E0FFF706
S315080215DCCDFD02467B6AD31A022B01D90323ABE152
S315080215EC404B1B6803F40053002BF0D018E03D4B1C
S315080215FC1B683C4A23F480531360FFF7B7FD7862E5
S3150802160C08E0FFF7B3FD02467B6AD31A022B01D90F
S3150802161C032391E1334B1B6803F40053002BF0D1DF
S3150802162C7B681B6803F00403002B00F086802E4BA4
S3150802163C1B682D4A43F480731360FFF797FD786293
S3150802164C08E0FFF793FD02467B6AD31A642B01D98D
S3150802165C032371E1244B1B6803F48073002BF0D02F
S3150802166C7B689B68012B06D11E4B1B6F1D4A43F0E8
S3150802167C010313672DE07B689B68002B0CD1194B71
S3150802168C1B6F184A23F001031367164B1B6F154A77
S3150802169C23F0040313671CE07B689B68052B0CD1AB
S315080216AC104B1B6F0F4A43F0040313670D4B1B6F4A
S315080216BC0C4A43F0010313670BE00A4B1B6F094AEA
S315080216CC23F001031367074B1B6F064A23F0040327
S315080216DC13677B689B68002B1AD0FFF747FD786265
S315080216EC0FE000BF0044025800480258FFF73EFDBF
S315080216FC02467B6AD31A41F28832934201D90323F2
S3150802170C1AE18F4B1B6F03F00203002BEED014E089
S3150802171CFFF72CFD78620AE0FFF728FD02467B6A82
S3150802172CD31A41F28832934201D9032304E1844B3A
S3150802173C1B6F03F00203002BEED17B685B6A002B4E
S3150802174C00F0F9807E4B1B6903F03803182B00F066
S3150802175CB4807B685B6A022B40F09580784B1B68D9
S3150802176C774A23F080731360FFF700FD786208E06E
S3150802177CFFF7FCFC02467B6AD31A022B01D9032318
S3150802178CDAE06F4B1B6803F00073002BF0D16C4B3D
S3150802179C9A6A6C4B13407A68916A7A68D26A120111
S315080217AC0A43674913438B627B681B6B013BC3F382
S315080217BC08027B685B6B013B5B029BB21A437B6834
S315080217CC9B6B013B1B0403F4FE031A437B68DB6B1E
S315080217DC013B1B0603F0FE43594913430B63584B53
S315080217ECDB6A574A23F00103D362554B5A6B564BA5
S315080217FC13407A68926CD200514913434B63504B8F
S3150802180CDB6A23F00C027B681B6C4D491343CB62D3
S3150802181C4B4BDB6A23F002027B685B6C4849134329
S3150802182CCB62474BDB6A464A43F48033D362444B5A
S3150802183CDB6A434A43F40033D362414BDB6A404AC0
S3150802184C43F48023D3623E4BDB6A3D4A43F00103E1
S3150802185CD3623B4B1B683A4A43F080731360FFF71B
S3150802186C85FC786208E0FFF781FC02467B6AD31A8C
S3150802187C022B01D903235FE0314B1B6803F000737B
S3150802188C002BF0D057E02E4B1B682D4A23F08073A1
S3150802189C1360FFF76BFC786208E0FFF767FC0246F9
S315080218AC7B6AD31A022B01D9032345E0244B1B6806
S315080218BC03F00073002BF0D13DE0214B9B6A3B6190
S315080218CC1F4B1B6BFB607B685B6A012B31D03B6938
S315080218DC03F003027B689B6A9A422AD13B691B096D
S315080218EC03F03F027B68DB6A9A4222D1FB68C3F398
S315080218FC08027B681B6B013B9A421AD1FB685B0A8E
S3150802190C03F07F027B685B6B013B9A4211D1FB6841
S3150802191C1B0C03F07F027B689B6B013B9A4208D136
S3150802192CFB681B0E03F07F027B68DB6B013B9A425A
S3150802193C01D0012300E0002318463037BD4680BD8E
S3150802194C004402580CFCFFFF0700FFFF80B584B069
S3150802195C00AF786039607B68002B01D101238DE1D9
S3150802196C8A4B1B6803F00F033A689A4210D9874BC5
S3150802197C1B6823F00F0285493B6813430B60834BA4
S3150802198C1B6803F00F033A689A4201D0012375E1EA
S3150802199C7B681B6803F00403002B10D07B681A695A
S315080219AC7B4B9B6903F070039A4208D9784B9B6967
S315080219BC23F070027B681B69754913438B617B683C
S315080219CC1B6803F00803002B10D07B685A69704B0E
S315080219DCDB6903F070039A4208D96D4BDB6923F075
S315080219EC70027B685B696A491343CB617B681B6827
S315080219FC03F01003002B10D07B689A69644BDB69E1
S31508021A0C03F4E0639A4208D9614BDB6923F4E0627A
S31508021A1C7B689B695E491343CB617B681B6803F041
S31508021A2C2003002B10D07B68DA69594B1B6A03F02A
S31508021A3C70039A4208D9564B1B6A23F070027B68CC
S31508021A4CDB69534913430B627B681B6803F0020379
S31508021A5C002B10D07B68DA684D4B9B6903F00F0399
S31508021A6C9A4208D94A4B9B6923F00F027B68DB68BA
S31508021A7C474913438B617B681B6803F00103002BF0
S31508021A8C55D0434B9B6923F470627B689B6840492B
S31508021A9C13438B617B685B68022B07D13C4B1B6833
S31508021AAC03F40033002B21D10123E7E07B685B6842
S31508021ABC032B07D1364B1B6803F00073002B15D189
S31508021ACC0123DBE07B685B68012B07D1304B1B6873
S31508021ADC03F48073002B09D10123CFE02C4B1B682E
S31508021AEC03F00403002B01D10123C7E0284B1B6921
S31508021AFC23F007027B685B68254913430B61FFF7E2
S31508021B0C35FBF8600AE0FFF731FB0246FB68D31A8D
S31508021B1C41F28832934201D90323AFE01C4B1B696D
S31508021B2C03F038027B685B68DB009A42EBD17B6870
S31508021B3C1B6803F00203002B10D07B68DA68144B7F
S31508021B4C9B6903F00F039A4208D2114B9B6923F047
S31508021B5C0F027B68DB680E4913438B610B4B1B68C0
S31508021B6C03F00F033A689A4214D2084B1B6823F007
S31508021B7C0F0206493B6813430B60044B1B6803F0C0
S31508021B8C0F033A689A4205D0012377E000200052E7
S31508021B9C004402587B681B6803F00403002B10D020
S31508021BAC7B681A69374B9B6903F070039A4208D211
S31508021BBC344B9B6923F070027B681B6931491343CA
S31508021BCC8B617B681B6803F00803002B10D07B68BB
S31508021BDC5A692C4BDB6903F070039A4208D2294BDB
S31508021BECDB6923F070027B685B6926491343CB6178
S31508021BFC7B681B6803F01003002B10D07B689A696C
S31508021C0C204BDB6903F4E0639A4208D21D4BDB696D
S31508021C1C23F4E0627B689B691A491343CB617B68A0
S31508021C2C1B6803F02003002B10D07B68DA69154B6E
S31508021C3C1B6A03F070039A4208D2124B1B6A23F0F2
S31508021C4C70027B68DB690F4913430B6200F022F8BA
S31508021C5C01460C4B9B691B0A03F00F030A4AD35C19
S31508021C6C03F01F0321FA03F3084A1360084B1B6897
S31508021C7C1846FFF731FA0346FB72FB7A18461037F9
S31508021C8CBD4680BD00440258D031020834040024F3
S31508021C9C2C04002480B489B000AFB04B1B6903F046
S31508021CAC3803182B00F2508101A252F823F000BF18
S31508021CBC211D0208551F0208551F0208551F020846
S31508021CCC551F0208551F0208551F0208551F020800
S31508021CDC471D0208551F0208551F0208551F020800
S31508021CEC551F0208551F0208551F0208551F0208E0
S31508021CFC4D1D0208551F0208551F0208551F0208DA
S31508021D0C551F0208551F0208551F0208551F0208BF
S31508021D1C531D0208914B1B6803F02003002B09D0B4
S31508021D2C8E4B1B68DB0803F003038D4A22FA03F376
S31508021D3CBB610CE18A4BBB6109E18A4BBB6106E1CB
S31508021D4C894BBB6103E1854B9B6A03F003037B61F9
S31508021D5C824B9B6A1B0903F03F033B617F4BDB6A91
S31508021D6C03F00103FB607D4B5B6BDB08C3F30C03CF
S31508021D7CFA6802FB03F307EE903AF8EE677AC7EDB8
S31508021D8C027A3B69002B00F0DC807B69012B5CD064
S31508021D9C7B69002B03D07B69022B78D099E06F4BB9
S31508021DAC1B6803F02003002B2DD06C4B1B68DB0839
S31508021DBC03F003036A4A22FA03F37B607B6807EE95
S31508021DCC903AF8EE676A3B6907EE903AF8EE677A4C
S31508021DDC86EEA77A614B1B6BC3F3080307EE903AA0
S31508021DECF8EE676A97ED026ADFED605AC6EE257A57
S31508021DFC76EEA77AF7EE006A77EEA67A67EE277A78
S31508021E0CC7ED077A87E03B6907EE903AF8EE677AF0
S31508021E1CDFED576A86EEA77A504B1B6BC3F30803A2
S31508021E2C07EE903AF8EE676A97ED026ADFED4F5ABB
S31508021E3CC6EE257A76EEA77AF7EE006A77EEA67ADA
S31508021E4C67EE277AC7ED077A65E03B6907EE903AA3
S31508021E5CF8EE677ADFED476A86EEA77A3F4B1B6B7D
S31508021E6CC3F3080307EE903AF8EE676A97ED026A2F
S31508021E7CDFED3E5AC6EE257A76EEA77AF7EE006ABB
S31508021E8C77EEA67A67EE277AC7ED077A43E03B69BF
S31508021E9C07EE903AF8EE677ADFED376A86EEA77A9E
S31508021EAC2E4B1B6BC3F3080307EE903AF8EE676AE0
S31508021EBC97ED026ADFED2D5AC6EE257A76EEA77AEB
S31508021ECCF7EE006A77EEA67A67EE277AC7ED077AF7
S31508021EDC21E03B6907EE903AF8EE677ADFED256A60
S31508021EEC86EEA77A1D4B1B6BC3F3080307EE903AD3
S31508021EFCF8EE676A97ED026ADFED1C5AC6EE257A8A
S31508021F0C76EEA77AF7EE006A77EEA67A67EE277A66
S31508021F1CC7ED077A00BF114B1B6B5B0A03F07F03F5
S31508021F2C01333B603B6807EE903AB8EE677AD7ED19
S31508021F3C076AC6EE877AFCEEE77A17EE903ABB6129
S31508021F4C05E00023BB6102E0064BBB6100BFBB691F
S31508021F5C18462437BD465DF8047B70470044025880
S31508021F6C0090D00300093D0040787D010000004630
S31508021F7C0024744C0024744A20BCBE4B80B500AFB6
S31508021F8C00F030FF0146084B9B6903F00F03074A22
S31508021F9CD35C03F01F0321FA03F3054A1360044BBF
S31508021FAC1B68184680BD00BF00440258D03102088F
S31508021FBC3804002480B584B000AF7860194BDB680E
S31508021FCC03F00403042B0AD0164BDB6803F0070351
S31508021FDC7A689A4201D001231FE000231DE0114BB7
S31508021FECDB6823F007020F497B681343CB60FFF7C4
S31508021FFCBDF8F86009E0FFF7B9F80246FB68D31A90
S3150802200CB3F57A7F01D9012307E0064B5B6803F423
S3150802201C0053B3F5005FEED1002318461037BD46C0
S3150802202C80BD00BF0048025880B586B000AF786004
S3150802203C0023FB750023BB757B681B6803F00063E2
S3150802204C002B3DD07B685B6EB3F5801F13D0B3F5BE
S3150802205C801F02D8002B07D01FE0B3F5001F13D040
S3150802206CB3F5401F1CD018E0AF4BDB6AAE4A43F4FB
S3150802207C0033D36215E07B6804330221184600F05C
S3150802208CCDFE0346FB750CE07B6824330221184609
S3150802209C00F076FF0346FB7503E00123FB7500E0AF
S315080220AC00BFFB7D002B09D19F4B1B6D23F44012FD
S315080220BC7B685B6E9C4913430B6501E0FB7DBB7524
S315080220CC7B681B6803F48073002B3DD07B685B6DC1
S315080220DC042B26D801A252F823F000BFFD200208D1
S315080220EC0B2102081D210208352102083521020896
S315080220FC8D4BDB6A8C4A43F40033D36215E07B685A
S3150802210C04330021184600F089FE0346FB750CE0E1
S3150802211C7B6824330021184600F032FF0346FB7510
S3150802212C03E00123FB7500E000BFFB7D002B09D100
S3150802213C7D4B1B6D23F007027B685B6D7A49134353
S3150802214C0B6501E0FB7DBB757B681B6803F40073AA
S3150802215C002B3ED07B689B6D802B1CD0802B04D821
S3150802216C002B08D0402B0DD01EE0C02B1FD0B3F588
S3150802217C807F1ED018E06C4BDB6A6B4A43F4003343
S3150802218CD36217E07B6804330021184600F046FE3A
S3150802219C0346FB750EE07B6824330021184600F0D3
S315080221ACEFFE0346FB7505E00123FB7502E000BF53
S315080221BC00E000BFFB7D002B09D15B4B1B6D23F4A2
S315080221CCE0727B689B6D584913430B6501E0FB7DF6
S315080221DCBB757B681B6803F48063002B44D07B6851
S315080221ECD3F8A430B3F5800F1FD0B3F5800F05D8FA
S315080221FC002B0AD0B3F5001F0ED01FE0B3F5C00FA3
S3150802220C1FD0B3F5000F1ED018E0474BDB6A464ABF
S3150802221C43F40033D36217E07B6804330021184673
S3150802222C00F0FCFD0346FB750EE07B6824330021A7
S3150802223C184600F0A5FE0346FB7505E00123FB755F
S3150802224C02E000BF00E000BFFB7D002B0AD1364B33
S3150802225C9B6D23F460027B68D3F8A430324913438E
S3150802226C8B6501E0FB7DBB757B681B6803F4006319
S3150802227C002B44D07B68D3F8A830B3F1007F1FD06B
S3150802228CB3F1007F05D8002B0AD0B3F1807F0ED0AC
S3150802229C1FE0B3F1407F1FD0B3F1806F1ED018E058
S315080222AC214BDB6A204A43F40033D36217E07B687E
S315080222BC04330021184600F0B1FD0346FB750EE007
S315080222CC7B6824330021184600F05AFE0346FB7538
S315080222DC05E00123FB7502E000BF00E000BFFB7DB1
S315080222EC002B0AD1104B9B6D23F0E0627B68D3F866
S315080222FCA8300D4913438B6501E0FB7DBB757B68E2
S3150802230C1B6803F00073002B35D07B689B6C102B73
S3150802231C0CD0102B02D8002B1BD017E0202B0CD07C
S3150802232C302B18D012E000BF00440258AF4BDB6AC0
S3150802233CAE4A43F40033D3620EE07B6804330221BF
S3150802234C184600F06BFD0346FB7505E00123FB7589
S3150802235C02E000BF00E000BFFB7D002B09D1A34BB6
S3150802236CDB6C23F030027B689B6CA0491343CB646D
S3150802237C01E0FB7DBB757B681B6803F48053002B5D
S3150802238C42D07B68DB6DB3F5005F1FD0B3F5005FF7
S3150802239C05D8002B0AD0B3F5805F0ED01FE0B3F533
S315080223AC405F1FD0B3F5804F1ED018E08F4BDB6A07
S315080223BC8E4A43F40033D36217E07B680433002158
S315080223CC184600F02BFD0346FB750EE07B6824339A
S315080223DC0021184600F0D4FD0346FB7505E00123DF
S315080223ECFB7502E000BF00E000BFFB7D002B09D1A4
S315080223FC7E4B1B6D23F4E0427B68DB6D7B491343F2
S3150802240C0B6501E0FB7DBB757B681B6803F4005307
S3150802241C002B42D07B681B6EB3F5003F1BD0B3F57D
S3150802242C003F05D8002B22D0B3F5803F0AD01BE01B
S3150802243CB3F5802F1DD0B3F5A02F1CD0B3F5403FB2
S3150802244C1BD011E07B6804330121184600F0E6FC28
S3150802245C0346FB7512E07B6824330121184600F00B
S3150802246C8FFD0346FB7509E00123FB7506E000BFE9
S3150802247C04E000BF02E000BF00E000BFFB7D002BBA
S3150802248C09D15A4B1B6D23F4E0227B681B6E574904
S3150802249C13430B6501E0FB7DBB757B681B6803F474
S315080224AC8043002B44D07B68D3F8AC30B3F1005F81
S315080224BC1BD0B3F1005F05D8002B22D0B3F1805F95
S315080224CC0AD01BE0B3F1804F1DD0B3F1A04F1CD03C
S315080224DCB3F1405F1BD011E07B6804330121184627
S315080224EC00F09CFC0346FB7512E07B682433012141
S315080224FC184600F045FD0346FB7509E00123FB75FA
S3150802250C06E000BF04E000BF02E000BF00E000BF27
S3150802251CFB7D002B0AD1354B9B6D23F0E0427B6881
S3150802252CD3F8AC30314913438B6501E0FB7DBB759F
S3150802253C7B681B6803F40043002B2DD07B68DB6E8B
S3150802254CB3F1805F05D0B3F1005F09D0002B13D02D
S3150802255C0FE0264BDB6A254A43F40033D3620CE0C0
S3150802256C7B6804330121184600F058FC0346FB75B8
S3150802257C03E00123FB7500E000BFFB7D002B09D1AC
S3150802258C1A4B1B6D23F040527B68DB6E17491343BB
S3150802259C0B6501E0FB7DBB757B681B6803F08073DA
S315080225AC002B35D07B685B6C032B1BD801A252F827
S315080225BC23F000BFFD250208D1250208DF250208F3
S315080225CCFD250208094BDB6A084A43F40033D36239
S315080225DC0FE07B6804330221184600F01FFC034601
S315080225ECFB7506E00123FB7503E000BF00440258A5
S315080225FC00BFFB7D002B09D1BA4BDB6C23F003021F
S3150802260C7B685B6CB7491343CB6401E0FB7DBB75F6
S3150802261C7B681B6803F48003002B00F08680B24BA0
S3150802262C1B68B14A43F480731360FEF79FFD386149
S3150802263C09E0FEF79BFD02463B69D31A642B02D9C5
S3150802264C0323FB7505E0A84B1B6803F48073002B68
S3150802265CEFD0FB7D002B66D1A24B1A6F7B68D3F8A1
S3150802266CB030534003F44073002B13D09D4B1B6FB1
S3150802267C23F44073FB609B4B1B6F9A4A43F48033DB
S3150802268C1367984B1B6F974A23F480331367954A43
S3150802269CFB6813677B68D3F8B030B3F5807F15D126
S315080226ACFEF764FD38610BE0FEF760FD02463B69F6
S315080226BCD31A41F28832934202D90323FB7505E0F9
S315080226CC884B1B6F03F00203002BEDD0FB7D002B0E
S315080226DC26D17B68D3F8B03003F44073B3F5407F48
S315080226EC0DD1804B1B6923F47C527B68D3F8B0302E
S315080226FC19097E4B0B407B4913430B6105E0794B59
S3150802270C1B69784A23F47C531361764B1A6F7B68E0
S3150802271CD3F8B030C3F30B03724913430B6704E0C7
S3150802272CFB7DBB7501E0FB7DBB757B681B6803F003
S3150802273C0103002B7DD07B689B6F282B66D801A2E0
S3150802274C52F823F01F280208192802081928020829
S3150802275C1928020819280208192802081928020831
S3150802276C19280208F5270208192802081928020846
S3150802277C1928020819280208192802081928020811
S3150802278C1928020807280208192802081928020813
S3150802279C19280208192802081928020819280208F1
S315080227AC192802081F2802081928020819280208DB
S315080227BC19280208192802081928020819280208D1
S315080227CC192802081F2802081928020819280208BB
S315080227DC19280208192802081928020819280208B1
S315080227EC192802081F2802087B6804330121184697
S315080227FC00F014FB0346FB750CE07B6824330121BD
S3150802280C184600F0BDFB0346FB7503E00123FB7576
S3150802281C00E000BFFB7D002B09D1324B5B6D23F028
S3150802282C38027B689B6F2F4913434B6501E0FB7D8E
S3150802283CBB757B681B6803F00203002B37D07B68D9
S3150802284C5B6F052B20D801A252F823F09B280208AD
S3150802285C71280208832802089B2802089B2802086A
S3150802286C9B2802087B6804330121184600F0D6FA25
S3150802287C0346FB750CE07B6824330121184600F0ED
S3150802288C7FFB0346FB7503E00123FB7500E000BFE3
S3150802289CFB7D002B09D1134B5B6D23F007027B687A
S315080228AC5B6F104913434B6501E0FB7DBB757B6877
S315080228BC1B6803F00403002B40D07B68D3F89030D6
S315080228CC052B27D801A252F823F000BF27290208A4
S315080228DCFD2802080F2902082729020827290208B7
S315080228EC272902080044025800480258CFFFFF0065
S315080228FC7B6804330121184600F090FA0346FB75EF
S3150802290C0CE07B6824330121184600F039FB034698
S3150802291CFB7503E00123FB7500E000BFFB7D002B72
S3150802292C0AD1B24B9B6D23F007027B68D3F8903021
S3150802293CAE4913438B6501E0FB7DBB757B681B684F
S3150802294C03F02003002B44D07B68D3F88C30B3F108
S3150802295C005F1BD0B3F1005F05D8002B22D0B3F170
S3150802296C805F0AD01BE0B3F1804F1DD0B3F1A04FA4
S3150802297C1CD0B3F1405F1BD011E07B6804330021F5
S3150802298C184600F04BFA0346FB7512E07B682433B3
S3150802299C0221184600F0F4FA0346FB7509E00123F6
S315080229ACFB7506E000BF04E000BF02E000BF00E0D2
S315080229BC00BFFB7D002B0AD18C4B5B6D23F0E042EA
S315080229CC7B68D3F88C30894913434B6501E0FB7D50
S315080229DCBB757B681B6803F04003002B44D07B68ED
S315080229ECD3F89830B3F5006F1BD0B3F5006F05D842
S315080229FC002B22D0B3F5806F0AD01BE0B3F5805FAB
S31508022A0C1DD0B3F5A05F1CD0B3F5406F1BD011E0F7
S31508022A1C7B6804330021184600F000FA0346FB755E
S31508022A2C12E07B6824330221184600F0A9FA034601
S31508022A3CFB7509E00123FB7506E000BF04E000BF45
S31508022A4C02E000BF00E000BFFB7D002B0AD1674BFA
S31508022A5C9B6D23F4E0527B68D3F898306349134391
S31508022A6C8B6501E0FB7DBB757B681B6803F08003F5
S31508022A7C002B44D07B68D3F89C30B3F5804F1BD01F
S31508022A8CB3F5804F05D8002B22D0B3F5005F0AD0D8
S31508022A9C1BE0B3F5004F1DD0B3F5204F1CD0B3F590
S31508022AACC04F1BD011E07B6804330021184600F096
S31508022ABCB5F90346FB7512E07B68243302211846E6
S31508022ACC00F05EFA0346FB7509E00123FB7506E086
S31508022ADC00BF04E000BF02E000BF00E000BFFB7DC0
S31508022AEC002B0AD1414B9B6D23F460427B68D3F8C9
S31508022AFC9C303E4913438B6501E0FB7DBB757B68B5
S31508022B0C1B6803F00803002B1AD07B68D3F88030B5
S31508022B1CB3F5805F0AD17B6824330221184600F08C
S31508022B2C2FFA0346002B01D00123BB752F4B5B6D85
S31508022B3C23F440527B68D3F880302C4913434B65F7
S31508022B4C7B681B6803F01003002B1AD07B68D3F83A
S31508022B5C9430B3F5807F0AD17B6824330221184658
S31508022B6C00F00EFA0346002B01D00123BB751F4B4E
S31508022B7C9B6D23F440727B68D3F894301B4913433C
S31508022B8C8B657B681B6803F40023002B32D07B68A9
S31508022B9CD3F8A030B3F5803F0DD0B3F5003F16D06D
S31508022BAC002B11D17B6804330021184600F036F944
S31508022BBC0346FB750CE07B6824330221184600F0A9
S31508022BCCDFF90346FB7503E00123FB7500E000BF42
S31508022BDCFB7D002B0CD1054B9B6D23F440327B6895
S31508022BECD3F8A030014913438B6503E0004402581D
S31508022BFCFB7DBB757B681B6803F48023002B2FD0E7
S31508022C0C7B68D3F88430B3F5001F0CD0B3F5401F9C
S31508022C1C15D0B3F5801F0FD1714BDB6A704A43F49A
S31508022C2C0033D3620CE07B6824330121184600F08A
S31508022C3CA7F90346FB7503E00123FB7500E000BF09
S31508022C4CFB7D002B0AD1664B5B6D23F440127B6825
S31508022C5CD3F88430624913434B6501E0FB7DBB759F
S31508022C6C7B681B6803F48033002B29D07B68DB6CEA
S31508022C7C002B03D0B3F5803F07D00FE0584BDB6A25
S31508022C8C574A43F40033D3620BE07B6804330221C0
S31508022C9C184600F0C3F80346FB7502E00123FB75E0
S31508022CAC00BFFB7D002B09D14D4BDB6C23F4803224
S31508022CBC7B68DB6C4A491343CB6401E0FB7DBB752D
S31508022CCC7B681B6803F00053002B0AD07B682433FD
S31508022CDC0221184600F054F90346002B01D00123B1
S31508022CECBB757B681B6803F40033002B2FD07B68FB
S31508022CFCDB6FB3F5807F0CD0B3F5807F02D8002B3F
S31508022D0C11D00DE0B3F5007F0FD0B3F5407F0ED08E
S31508022D1C06E0334BDB6A324A43F40033D36207E0EC
S31508022D2C0123FB7504E000BF02E000BF00E000BF10
S31508022D3CFB7D002B09D12A4B5B6D23F440727B6811
S31508022D4CDB6F274913434B6501E0FB7DBB757B683B
S31508022D5C1B6803F48013002B08D0214B1B6D23F040
S31508022D6C00427B681B6F1E4913430B657B681B6805
S31508022D7C03F40013002B08D0194B1B6D23F0807239
S31508022D8C7B689B6E164913430B657B681B6803F0BD
S31508022D9C8043002B0DD0124B1B69114A23F40043B6
S31508022DAC13610F4B1A697B68D3F8B8300C49134375
S31508022DBC0B617B681B68002B08DA094BDB6C23F06A
S31508022DCC40527B681B6D06491343CB64BB7D002BB3
S31508022DDC01D1002300E0012318461837BD4680BDF1
S31508022DEC0044025880B500AFFEF754FF0146084B63
S31508022DFC9B691B0A03F00F03064AD35C03F01F03F5
S31508022E0C21FA03F3044A1360034B1B68184680BD68
S31508022E1C00440258D03102083404002480B584B028
S31508022E2C00AF786039600023FB73534B9B6A03F03F
S31508022E3C0303032B01D1012399E04F4B1B684E4A1E
S31508022E4C23F080631360FEF791F9B86008E0FEF789
S31508022E5C8DF90246BB68D31A022B01D9032386E0E5
S31508022E6C454B1B6803F00063002BF0D1424B9B6A5F
S31508022E7C23F47C327B681B681B033F4913438B6222
S31508022E8C7B685B68013BC3F308027B689B68013B62
S31508022E9C5B029BB21A437B68DB68013B1B0403F497
S31508022EACFE031A437B681B69013B1B0603F0FE43B0
S31508022EBC314913438B63304BDB6A23F0C0027B68C0
S31508022ECC5B692D491343CB622B4BDB6A23F0200239
S31508022EDC7B689B6928491343CB62274BDB6A264AD4
S31508022EEC23F01003D362244BDA6B244B13407A6813
S31508022EFCD269D20020491343CB631F4BDB6A1E4AA5
S31508022F0C43F01003D3623B68002B06D11A4BDB6ADB
S31508022F1C194A43F40023D3620FE03B68012B06D10E
S31508022F2C154BDB6A144A43F48013D36205E0124B41
S31508022F3CDB6A114A43F40013D3620F4B1B680E4A21
S31508022F4C43F080631360FEF711F9B86008E0FEF7E8
S31508022F5C0DF90246BB68D31A022B01D9032306E0E4
S31508022F6C054B1B6803F00063002BF0D0FB7B18465D
S31508022F7C1037BD4680BD00BF004402580700FFFF4C
S31508022F8C80B584B000AF786039600023FB73534B6D
S31508022F9C9B6A03F00303032B01D1012399E04F4BE0
S31508022FAC1B684E4A23F080531360FEF7DFF8B860AD
S31508022FBC08E0FEF7DBF80246BB68D31A022B01D9E6
S31508022FCC032386E0454B1B6803F00053002BF0D114
S31508022FDC424B9B6A23F07C727B681B681B053F4934
S31508022FEC13438B627B685B68013BC3F308027B68FD
S31508022FFC9B68013B5B029BB21A437B68DB68013B0D
S3150802300C1B0403F4FE031A437B681B69013B1B066C
S3150802301C03F0FE43314913430B64304BDB6A23F44A
S3150802302C40627B685B692D491343CB622B4BDB6A87
S3150802303C23F400727B689B6928491343CB62274B9E
S3150802304CDB6A264A23F48073D362244B5A6C244BCC
S3150802305C13407A68D269D200204913434B641F4B3A
S3150802306CDB6A1E4A43F48073D3623B68002B06D193
S3150802307C1A4BDB6A194A43F48003D3620FE03B68A6
S3150802308C012B06D1154BDB6A144A43F40003D362AF
S3150802309C05E0124BDB6A114A43F08073D3620F4B7D
S315080230AC1B680E4A43F080531360FEF75FF8B8604C
S315080230BC08E0FEF75BF80246BB68D31A022B01D965
S315080230CC032306E0054B1B6803F00053002BF0D0D4
S315080230DCFB7B18461037BD4680BD00BF004402581C
S315080230EC0700FFFF80B400AF294BD3F88830284A73
S315080230FC43F47003C2F88830264B1B68254A43F002
S3150802310C01031360234B00221A61224B1A682149C8
S3150802311C214B13400B601F4B00229A611D4B002258
S3150802312CDA611C4B00221A621A4B00229A62194B5C
S3150802313C0022DA62174B00221A63164B00225A63D4
S3150802314C144B00229A63134B0022DA63114B0022AA
S3150802315C1A64104B00225A640E4B1B680D4A23F450
S3150802316C802313600B4B00221A660C4B1A680C4B05
S3150802317C1340B3F1005F02D20A4B01221A60044BC8
S3150802318C4FF000629A6000BFBD465DF8047B70473B
S3150802319C00ED00E0004402587FEDF6EA0010005CF0
S315080231AC0000FFFF08810051F8B500BFF8BC08BC47
S315080231BC9E467047F8B500BFF8BC08BC9E467047D9
S315080231CC00000024000000000102030401020304AB
S309080231DC06070809C1
S30D080231E0C5030208C102020838
S309080231E89D0202082A
S315080231EC00000000EC02002454030024BC03002453
S315080231FC00000000000000000000000000000000B3
S3150802320C00000000000000000000000000000000A2
S3150802321C0000000000000000000000000000000092
S3150802322C0000000000000000000000000000000082
S3150802323C0000000000000000000000000000000072
S3150802324C0000000000000000000000000000000062
S3150802325C0000000000000000000000000000000052
S3150802326C0000000000000000000000000000000042
S3150802327C0000000000000000000000000000000032
S3150802328C0000000000000000010000000000000021
S3150802329C0E33CDAB34126DE6ECDE05000B000000E6
S315080232AC0000000000000000000000000000000002
S315080232BC00000000000000000000000000000000F2
S315080232CC00000000000000000000000000000000E2
S315080232DC00000000000000000000000000000000D2
S3150802360C00000000000000005C040024100000000A
S3110802361C010000000090D0030090D003CB
S705080204A943
