S01D000062696E2F6F70656E626C745F73746D3332683734332E737265638D
S3150800000000000220A5040008F5040008F50400080D
S31508000010F5040008F5040008F504000800000000CF
S31508000020000000000000000000000000F5040008C1
S31508000030F504000800000000F5040008F939000876
S31508000040F5040008F5040008F5040008F50400089E
S31508000050F5040008F5040008F5040008F50400088E
S31508000060F5040008F5040008F5040008F50400087E
S31508000070F5040008F5040008F5040008F50400086E
S31508000080F5040008F5040008F5040008F50400085E
S31508000090F5040008F5040008F5040008F50400084E
S315080000A0F5040008F5040008F5040008F50400083E
S315080000B0F5040008F5040008F5040008F50400082E
S315080000C0F5040008F5040008F5040008F50400081E
S315080000D0F5040008F5040008F5040008F50400080E
S315080000E0F5040008F504000800000000F5040008FF
S315080000F0F5040008F5040008F5040008F5040008EE
S31508000100F5040008F5040008F5040008F5040008DD
S31508000110F5040008F5040008F5040008F5040008CD
S31508000120F5040008F5040008F5040008F5040008BD
S31508000130F5040008F5040008F5040008F5040008AD
S3150800014000000000000000000000000000000000A1
S31508000150F5040008F5040008F5040008F50400088D
S31508000160F5040008F5040008F5040008F50400087D
S31508000170F5040008F5040008F5040008000000006E
S31508000180F5040008F5040008F5040008F50400085D
S31508000190F5040008F5040008F5040008F50400084D
S315080001A0F5040008F5040008F5040008F50400083D
S315080001B0F5040008F5040008F5040008F50400082D
S315080001C0F5040008F5040008F5040008F50400081D
S315080001D0F5040008F5040008F5040008F50400080D
S315080001E0F5040008F5040008F5040008F5040008FD
S315080001F0F5040008F5040008F5040008F5040008ED
S31508000200F5040008F5040008F5040008F5040008DC
S31508000210F5040008F5040008F5040008F5040008CC
S31508000220F5040008F5040008F504000800000000BD
S31508000230F5040008F504000800000000F5040008AD
S31508000240F5040008F5040008F5040008F50400089C
S31508000250F5040008F5040008F5040008F50400088C
S31508000260F5040008F5040008F5040008F50400087C
S31508000270F5040008F5040008F5040008000000006D
S31508000280F504000800000000F5040008000000005E
S30D0800029000000000F504000857
S3150800029810B5054C237833B9044B13B10448AFF3AA
S315080002A800800123237010BD4004002400000000CC
S315080002B8203A000808B5034B1BB103490348AFF3B6
S315080002C8008008BD0000000044040024203A000805
S315080002D870B50D4E0D4D761BB61006D000240134A8
S315080002E855F8043B9847A642F9D1094E094D761B9D
S315080002F803F092FBB61006D00024013455F8043BE7
S315080003089847A642F9D170BD783B0008783B0008A3
S31508000318803B0008783B0008F0B4860746D0541E90
S31508000328002A3CD0CAB2034602E014F1FF3436D399
S3150800033803F8012B9D07F8D1032C29D9CDB245EA34
S3150800034805250F2C45EA054533D9A4F110063609C3
S3150800035803F1200707EB061703F1100242E90455D3
S3150800036842E902551032BA42F8D1721C14F00C0F41
S3150800037803EB021204F00F0613D0331F23F003030E
S315080003880433134442F8045B9342FBD106F0030492
S315080003982CB1C9B21C4403F8011B9C42FBD1F0BC22
S315080003A8704734461346002CF3D1F8E7144603463B
S315080003B8C2E71A462646E0E7024B13B1024800F0A0
S315080003C805B8704700000000E1030008002301464D
S315080003D81A46184600F01EB838B50A4C0A4D641B6A
S315080003E8A4100AD004F18043013B05EB8305013CC0
S315080003F855F804399847002CF9D1BDE8384003F078
S3150800040811BB00BF843B0008803B0008704700BF4B
S31508000418704700BF2DE9F0411E4C054620689046F6
S315080004281F460E46FFF7F2FF1B4B1A68D2F84831EB
S3150800043833B35A6820681F2A27DC4DB9911C013244
S315080004485A6043F82160FFF7E3FF0020BDE8F08112
S3150800045803EB82010124C1F8888004FA02FED3F866
S315080004688841022D44EA0E0CC3F888C1C1F8087100
S31508000478E4D1D3F88C114EEA0104C3F88C41DDE7C0
S3150800048802F5A673C2F84831D3E7FFF7C1FF4FF064
S31508000498FF30DBE728040024383A0008DFF834D0B0
S315080004A8002103E00C4B5B58435004310B480C4BB6
S315080004B842189A42F6D30B4A02E0002342F8043B54
S315080004C8094B9A42F9D302F071FCFFF701FF00F0D5
S315080004D8EDF8704700000220843B0008000000245D
S315080004E8400400244004002490050424FEE7000084
S315080004F80E4B18681A68C2F3072252FA80F218686F
S31508000508C0F3074010441B681B0E13FA80F080B22C
S315080005180023372B06D8054A1A441279104480B2A4
S315080005280133F6E7404280B2704700BF0000003842
S3150800053808B5FFF7DDFF044B9B8F9BB2984201D0A5
S31508000548002008BD0120FCE70000003808B5054B67
S315080005581A68054B9A4201D0002008BDFFF7E8FF44
S31508000568FBE700BF00000038A2E742CE08B5FFF750
S31508000578BFFF034B98871A78D2B21A7008BD00BF16
S315080005880000003808B5FFF7E1FF68B9074B084AC5
S315080005981A600023372B05D8044A1A44002111711A
S315080005A80133F7E7FFF7E2FF08BD00BF0000003890
S315080005B8A2E742CE00B5CDB04C22002139A8FFF7F4
S315080005C8ABFE2022002131A8FFF7A6FEBC22002197
S315080005D802A8FFF7A1FE022001F0F2FC002301930E
S315080005E82B4BDA6A22F00102DA62DB6A03F00103AE
S315080005F80193284A936923F4404343F4804393615B
S31508000608936903F440430193019B224B9B6913F4B6
S31508000618005FFAD00223399301233C9300F020FBAC
S3150800062841F20303984222D820233D93002342939C
S3150800063839A800F071FEE0B93F23319300213291C1
S3150800064833913491359136913791389131A801F023
S3150800065853FA98B9104B02930023169303231F9352
S3150800066802A801F0E3FD70B94DB05DF804FB40231C
S31508000678DBE77F21094802F08FFEDDE7902107486E
S3150800068802F08AFEE6E79A21044802F085FEEBE7BF
S315080006980004005800480258020000803C3A000846
S315080006A808B500F0AFFAFFF785FF08BD08B5FFF7EC
S315080006B8F7FFFFF767FF02F04FFE02F05BFEFCE765
S315080006C870B592B0634BD3F8F42042F00202C3F82F
S315080006D8F420D3F8F42002F002020092009AD3F824
S315080006E8E02042F48072C3F8E020D3F8E02002F450
S315080006F880720192019AD3F8E02042F00202C3F808
S31508000708E020D3F8E02002F002020292029AD3F817
S31508000718E02042F48062C3F8E020D3F8E02002F42F
S3150800072880620392039AD3F8E02042F04002C3F8A5
S31508000738E020D3F8E02002F040020492049AD3F8A5
S31508000748E02042F00802C3F8E020D3F8E02002F0DF
S3150800075808020592059AD3F8E02042F00402C3F885
S31508000768E020D3F8E02002F004020692069AD3F8AD
S31508000778E02042F00102C3F8E020D3F8E02002F0B6
S3150800078801020792079AD3F8E02042F01002C3F84C
S31508000798E020D3F8E02002F010020892089AD3F86D
S315080007A8E02042F40072C3F8E020D3F8E02002F40F
S315080007B800720992099AD3F8E02042F08002C3F839
S315080007C8E020D3F8E02002F080020A920A9AD3F8C9
S315080007D8E02042F02002C3F8E020D3F8E02002F037
S315080007E820020B920B9AD3F8E82042F40032C3F899
S315080007F8E820D3F8E83003F400330C930C9B4FF445
S3150800080880460D9601230E9300240F941094124DDA
S315080008180DA9284600F06CF822463146284600F00D
S3150800082860F94FF400530D930E940F940DA90B48D5
S3150800083800F05EF860230D9302230E930F940323AA
S315080008481093072311930DA9054800F051F812B023
S3150800085870BD00BF00440258000402580008025838
S31508000868000C025808B54FF40051054800F032F953
S31508000878012803D000F032F8012008BD0020FCE763
S315080008880008025808B5642000F006F808BD08B53F
S3150800089800F008F808BD0000014B1880704700BF33
S315080008A85C04002408B503F097F8094B1B689842BE
S315080008B800D208BD4FF48041064800F018F903F045
S315080008C88BF8054B1B881844014B1860F1E700BFE5
S315080008D860040024000402585C04002408B50022B9
S315080008E84FF48041014800F0FCF808BD000402589E
S315080008F8F0B482B000233AE0092400E00024B440AA
S315080009083C4302356F4E46F825406F4C2568D4435C
S3150800091804EA05064F6817F4803F01D042EA05063F
S31508000928694D2E606E6804EA06054F6817F4003F9D
S3150800093801D042EA0605644E75604FF0B0452D6849
S3150800094804EA05064F6817F4801F01D042EA05062F
S315080009584FF0B0452E606D682C404E6816F4001F9F
S3150800096801D042EA05044FF0B042546001330A68E0
S3150800097832FA03F400F0A28001249C402240F5D004
S315080009884D68122D18BF022D10D1DE08083650F80A
S3150800099826C003F00705AF000F25BD402CEA050C55
S315080009A80D69BD4045EA0C0540F8265006685F0003
S315080009B80325BD40ED4305EA060C4E6806F0030616
S315080009C8BE4046EA0C0606604E6806F1FF3C112E44
S315080009D818BFBCF1010F01D9122E11D1866805EA94
S315080009E8060CCE68BE4046EA0C068660466826EAC5
S315080009F8040C4E68C6F300149C4044EA0C04446090
S31508000A08C46825408C68BC402C43C4604C6814F004
S31508000A18805FABD02D4CD4F8F45045F00205C4F8E5
S31508000A28F450D4F8F44004F002040194019C9D089B
S31508000A38AE1C244C54F8267003F00304A6000F24B1
S31508000A48B44027EA0407224CA0423FF457AF04F5FE
S31508000A588064A04222D004F58064A04220D004F520
S31508000A688064A0421ED004F58064A0421CD004F518
S31508000A788064A0421AD004F58064A04218D004F510
S31508000A888064A04216D004F58064A04214D004F508
S31508000A988064A0423FF430AF0A2430E701242EE7E9
S31508000AA802242CE703242AE7042428E7052426E752
S31508000AB8062424E7072422E7082420E702B0F0BC26
S31508000AC8704700BF000400588000005800440258C8
S31508000AD8000002580369194201D001207047002016
S31508000AE870470AB181617047090481617047436993
S31508000AF831EA030301D081617047090481617047AF
S31508000B080649CB6823F4E0631B041B0C000200F4B7
S31508000B18E0600343024A1A43CA60704700ED00E0E2
S31508000B280000FA0530B4154BDB68C3F30223C3F19A
S31508000B380704042C28BF04241D1D062D01D9033BD0
S31508000B4800E000234FF0FF3505FA04F421EA040112
S31508000B58994005FA03F322EA03031943002805DB3B
S31508000B680901C9B2064B195430BC704700F00F008A
S31508000B780901C9B2034B1954F6E700BF00ED00E0B6
S31508000B8800E400E014ED00E00138B0F1807F0AD2F5
S31508000B98064B5860064AF02182F823100020986010
S31508000BA807221A6070470120704700BF10E000E06E
S31508000BB800ED00E0104B1B780BB90120704710B503
S31508000BC804464FF47A70B0FBF3F30C4A1068B0FB8E
S31508000BD8F3F0FFF7D9FF68B90F2C01D901200AE00D
S31508000BE8002221464FF0FF30FFF79CFF044B1C609C
S31508000BF8002000E0012010BD2C0400243404002441
S31508000C083004002410B50320FFF77AFF00F07EFEB3
S31508000C180F498B69C3F303230E4AD35C03F01F03FA
S31508000C28D8400D4B18608B6903F00F03D35C03F0AB
S31508000C381F03D840094B18600020FFF7BBFF10B107
S31508000C480124204610BD0446FFF73AFDF9E700BF20
S31508000C5800440258843A000834040024380400245E
S31508000C68014B1868000C70470010005C07EE900AE4
S31508000C78F8EE676A07EE901AF8EE677A86EEA77AAC
S31508000C8807EE902AF8EE677A06EE903AF8EE666A64
S31508000C989FED096A66EE866A77EEA67A27EE277AC0
S31508000CA8DDED007AF8EE677AC7EE276AFCEEE67A93
S31508000CB817EE900A704700BF000000392DE9F04189
S31508000CC882B03A4B9B6A03F00303012B5FD0002BD3
S31508000CD852D0022B62D0002500230360436083604C
S31508000CE8324B9E6AC6F305161A6BC2F3080202F15E
S31508000CF80108DF6A17F0010702D05F6BC7F3CC0754
S31508000D08002E36D00446294BDB6A13F4803F0CD0F4
S31508000D18264B1B6BC3F34623013300933B464246D7
S31508000D2831462846FFF7A2FF2060204BDB6A13F4FA
S31508000D38003F0CD01D4B1B6BC3F3064301330093CE
S31508000D483B46424631462846FFF790FF6060174BF8
S31508000D58DB6A13F4802F0CD0144B1B6BC3F30663A2
S31508000D68013300933B46424631462846FFF77EFF45
S31508000D78A06002B0BDE8F0810C4B1D6815F00405AB
S31508000D88AAD01B68C3F3C103094DDD40A4E7074B86
S31508000D981D6815F480759FD0064D9DE7034B1D68A1
S31508000DA815F4003598D0044D96E700BF004402585C
S31508000DB80090D00300093D0040787D012DE9F041F7
S31508000DC882B03A4B9B6A03F00303012B5FD0002BD2
S31508000DD852D0022B62D0002500230360436083604B
S31508000DE8324B9E6AC6F305369A6BC2F3080202F1BD
S31508000DF80108DF6A17F0100702D0DF6BC7F3CC07C4
S31508000E08002E36D00446294BDB6A13F4002F0CD083
S31508000E18264B9B6BC3F34623013300933B46424656
S31508000E2831462846FFF722FF2060204BDB6A13F479
S31508000E38801F0CD01D4B9B6BC3F3064301330093ED
S31508000E483B46424631462846FFF710FF6060174B77
S31508000E58DB6A13F4001F0CD0144B9B6BC3F30663B1
S31508000E68013300933B46424631462846FFF7FEFEC5
S31508000E78A06002B0BDE8F0810C4B1D6815F00405AA
S31508000E88AAD01B68C3F3C103094DDD40A4E7074B85
S31508000E981D6815F480759FD0064D9DE7034B1D68A0
S31508000EA815F4003598D0044D96E700BF004402585B
S31508000EB80090D00300093D0040787D012DE9F041F6
S31508000EC882B03E4B9B6A03F00303012B67D0002BC5
S31508000ED85AD0022B6AD0002400230360436083603B
S31508000EE8364B9D6AC5F305551A6CC2F30802571C9A
S31508000EF8DE6A16F4807602D05E6CC6F3CC06231C2E
S31508000F0818BF0123002D08BF0023002B39D08046BF
S31508000F182A4BDB6A13F4800F0DD0284B1B6CC3F3DE
S31508000F2846230133009333463A4629462046FFF7B7
S31508000F389DFEC8F80000214BDB6A13F4000F0DD09C
S31508000F481E4B1B6CC3F306430133009333463A46DC
S31508000F5829462046FFF78AFEC8F80400174BDB6ABD
S31508000F6813F0807F0DD0154B1B6CC3F30663013352
S31508000F78009333463A4629462046FFF777FEC8F8CF
S31508000F88080002B0BDE8F0810C4B1C6814F0040494
S31508000F98A2D01B68C3F3C103094CDC409CE7074B86
S31508000FA81C6814F4807497D0064C95E7034B1C68A4
S31508000FB814F4003490D0044C8EE700BF004402585D
S31508000FC80090D00300093D0040787D01154B1B6948
S31508000FD803F03803182B0ED8DFE803F00F0D0D0DB4
S31508000FE80D0D0D0D210D0D0D0D0D0D0D160D0D0DFE
S31508000FF80D0D0D0D1800002070470A4B1B68C3F32A
S31508001008C1030948D84070470848704700B585B0F5
S3150800101801A8FFF753FE019805B05DF804FB0448DC
S31508001028704700BF004402580090D00340787D01FD
S3150800103800093D00034B9B6903F00F03024AD35C82
S31508001048D840704700440258443A0008034BDB6905
S31508001058C3F30213024AD35CD840704700440258C7
S31508001068443A0008034BDB69C3F30223024AD35CFC
S31508001078D840704700440258443A000800B585B07D
S31508001088C2B2474BD358020EC0F304218A40134014
S31508001098CB4040EA0340434B984226D031D8A3F5C3
S315080010A88133A3F58073984261D017D8A3F58033A6
S315080010B898424ED003F5407398420DD1FFF786FF44
S315080010C8394B9B69C3F30323384AD35CD840FFF7E7
S315080010D8B1FFFFF7C7FF24E0002022E0344B98420F
S315080010E845D003F57D43984209D12F4B186810F06F
S315080010F8005016D001A8FFF7E1FE029811E000207B
S315080011080FE02C4B98423CD00ED92B4B98423FD037
S3150800111803F5407398423BD0A3F58033984230D004
S31508001128002005B05DF804FBA3F58033984203D088
S3150800113803F5407398420AD11B4B186810F004004F
S31508001148EFD01B68C3F3C1031C48D840E9E7002061
S31508001158E7E7FFF73BFF144B9B69C3F30323134ADF
S31508001168D35CD840FFF766FFFFF770FFD9E70E4B49
S31508001178186810F00060D4D001A8FFF71FFE02987F
S31508001188CFE7094B186810F48070CAD00C48C8E72E
S31508001198054B186F10F00200C3D04FF40040C0E7A3
S315080011A84C4402580803020700440258443A000807
S315080011B80803010708000407080005070090D0037C
S315080011C800093D0038B5036813F0010F40F089801F
S315080011D80D4604460368444A1A408B6809690B4356
S315080011E869690B43E9690B4313430360EB68426873
S315080011F822F4405213434360AB69826822F4407272
S3150800120813438360394B984216D0394B98421CD001
S31508001218384B98421DD0384B98421ED0374B9842C7
S315080012281FD0374B984220D0364B984221D0364BA0
S31508001238984222D000204DE03448FFF71FFF0028C7
S3150800124847D06A68EAB9002044E03148FFF716FF34
S31508001258F5E72F48FFF712FFF1E72D48FFF70EFFCE
S31508001268EDE72B48FFF70AFFE9E72848FFF706FFE7
S31508001278E5E72748FFF702FFE1E72548FFF7FEFEFF
S31508001288DDE72B68E9690B2B0ED8B1F5004F0DD0B1
S31508001298DBB2204951F82330B0FBF3F303EB5203D2
S315080012A8B3FBF2F39BB2E360012013E0DBB2194902
S315080012B851F82330B0FBF3F0530803EB4000B0FBBA
S315080012C8F2F34FF6F0721A40C3F342031343E3608E
S315080012D8EAE70020E26A22F00F022B881343E3624A
S315080012E800E0002038BD00BFF369FFEF0010014099
S315080012F80044004000480040004C004000500040B0
S315080013080014014000780040007C004008030007EC
S3150800131808000007543A0008002800F0DC8238B5AF
S315080013280446036813F0010F25D0A94A136903F088
S315080013383803926A102B15D0182B0FD06368B3F5AB
S31508001348803F3ED0002B52D1A14B1A6822F4803236
S315080013581A601A6822F480221A6037E002F003023B
S31508001368022AEBD19A4B1B6813F4003F03D0636833
S31508001378002B00F0B282236813F0020F77D0944A44
S315080013881369926A13F038035AD0182B55D0E368B4
S31508001398002B00F0B2808E490A6822F0190213431E
S315080013A80B6002F021FB0546894B1B6813F0040FF6
S315080013B840F08B8002F018FB401B0228F4D9032062
S315080013C892E2834A136843F48033136063682BB345
S315080013D802F00AFB05467E4B1B6813F4003FCAD188
S315080013E802F002FB401B6428F5D903207CE2B3F51A
S315080013F8A02F09D0764B1A6822F480321A601A6828
S3150800140822F480221A60E1E7714B1A6842F48022B6
S315080014181A601A6842F480321A60D7E702F0E4FACA
S3150800142805466B4B1B6813F4003FA4D002F0DCFAA0
S31508001438401B6428F5D9032056E212F0030FA6D1FB
S31508001448634B1B6813F0040F03D0E368002B00F006
S315080014584682FFF705FC41F2030398422CD85C4AFA
S31508001468536823F47C33216943EA013353602368BC
S3150800147813F0100F70D0564A136903F03803926AAE
S31508001488082B52D0182B4CD0E369002B00F0A28009
S315080014984F4A136843F08003136002F0A5FA05461D
S315080014A84B4B1B6813F4807F7AD102F09DFA401BD8
S315080014B80228F5D9032017E2454A536823F0FE4364
S315080014C8216943EA01635360D1E7FFF7C9FB41F293
S315080014D80303984208D83E4A536823F47C332169A3
S315080014E843EA01335360C2E7394A536823F0FE4397
S315080014F8216943EA01635360B9E7354A136823F05B
S315080015080103136002F070FA0546314B1B6813F0A5
S31508001518040FACD002F068FA401B0228F5D903205C
S31508001528E2E102F00302012AAED1294B1B6813F443
S31508001538807F03D0E369802B40F0D381FFF790FBC7
S3150800154841F20303984222D8214A536823F0F84304
S31508001558216A43EA81635360236813F0080F61D050
S315080015686369002B4AD01A4A536F43F0010353673D
S3150800157802F03AFA0546164B5B6F13F0020F51D183
S3150800158802F032FA401B0228F5D90320ACE1104ACA
S31508001598D36823F07C53216A43EA0163D360DBE707
S315080015A8FFF75EFB41F20303984208D8084A5368D6
S315080015B823F0F843216A43EA81635360CCE7044A77
S315080015C8D36823F07C53216A43EA0163D360C3E7EF
S315080015D800440258A74A136823F08003136002F0F0
S315080015E803FA0546A34B1B6813F4807FB4D002F0B0
S315080015F8FBF9401B0228F5D9032075E19D4A536F6C
S3150800160823F00103536702F0EFF90546994B5B6F20
S3150800161813F0020F06D002F0E7F9401B0228F5D9A5
S31508001628032061E1236813F0200F29D0A3699BB131
S31508001638904A136843F48053136002F0D5F90546B7
S315080016488C4B1B6813F4005F1AD102F0CDF9401BC6
S315080016580228F5D9032047E1864A136823F48053FC
S31508001668136002F0C1F90546824B1B6813F4005F44
S3150800167806D002F0B9F9401B0228F5D9032033E150
S31508001688236813F0040F21D1636A002B00F02B811D
S31508001698784A126902F03802182A00F0F380022BF9
S315080016A875D0744A136823F08073136002F09CF9A6
S315080016B80446704B1B6813F0007F00F0D88002F0D0
S315080016C893F9001B0228F4D903200DE16A4A136826
S315080016D843F48073136002F087F90546664B1B6866
S315080016E813F4807F06D102F07FF9401B6428F5D9E8
S315080016F80320F9E0A368012B0AD00BBB5D4B1A6FD0
S3150800170822F001021A671A6F22F004021A6704E027
S31508001718584A136F43F001031367A36833B302F0FB
S3150800172863F90546534B1B6F13F0020FACD102F051
S315080017385BF9401B41F288339842F3D90320D3E07A
S31508001748052B09D04B4B1A6F22F001021A671A6F3C
S3150800175822F004021A67E0E7464B1A6F42F00402C1
S315080017681A671A6F42F001021A67D6E702F03CF9BF
S315080017780546404B1B6F13F0020F85D002F034F96B
S31508001788401B41F288339842F3D90320ACE0394A22
S31508001798136823F08073136002F026F90546354B63
S315080017A81B6813F0007F06D002F01EF9401B0228BA
S315080017B8F5D9032098E02F4B996A304A0A40A16A5E
S315080017C8E06A41EA00110A439A62226B013AC2F3B7
S315080017D80802616B0139490289B20A43A16B0139CA
S315080017E8090401F4FE010A43E16B0139090601F00F
S315080017F8FE410A431A63DA6A22F00102DA62596B71
S315080018081F4A0A40A16C42EAC1025A63DA6A22F000
S315080018180C02216C0A43DA62DA6A22F00202616C67
S315080018280A43DA62DA6A42F48032DA62DA6A42F437
S315080018380032DA62DA6A42F48022DA62DA6A42F056
S315080018480102DA621A6842F080721A6002F0CCF86D
S315080018580446084B1B6813F0007F06D102F0C4F84B
S31508001868001B0228F5D903203EE000203CE00020B2
S315080018783AE000BF00440258004802580CFCFFFF33
S315080018880700FFFF204A916A106B012B2DD001F043
S315080018980303A26A93422AD1C1F30511E36A99425E
S315080018A827D1C0F30802236B013B9A4223D1C0F320
S315080018B84622636B013B9A421FD1C0F30642A36BCB
S315080018C8013B9A421BD1C0F30660E36B013B984281
S315080018D817D1002008E001207047012004E0012004
S315080018E802E0012000E0002038BD0120FCE70120C5
S315080018F8FAE70120F8E70120F6E70120F4E70120D6
S31508001908F2E70120F0E700BF00440258724B1B6952
S3150800191803F03803102B00F0DB80182B10D00BB11E
S315080019286E4870476C4B1B6813F0200F00F0D28086
S31508001938694B1868C0F3C100694B23FA00F0704771
S31508001948654A916A01F00301906AC0F30510D36AE3
S3150800195803F00103526BC2F3CC0203FB02F307EE52
S31508001968903AF8EE677A002800F0B580012966D023
S31508001978F9B1022900F08F8007EE100AF8EE476AD7
S315080019889FED586A86EE267A534B1B6BC3F30803FA
S3150800199806EE903AF8EE666A9FED536A67EE867A1F
S315080019A876EEA77AF7EE006A77EEA67A27EE277A12
S315080019B861E0494B1B6813F0200F23D046490A6893
S315080019C8C2F3C102464BD34007EE103AF8EE476A0F
S315080019D807EE100AB8EE476A86EE867A0B6BC3F3EB
S315080019E8080306EE903AF8EE666A9FED3F6A67EED8
S315080019F8867A76EEA77AF7EE006A77EEA67A27EE63
S31508001A08277A38E007EE100AF8EE476A9FED376A34
S31508001A1886EE267A304B1B6BC3F3080306EE903A1C
S31508001A28F8EE666A9FED306A67EE867A76EEA77AEA
S31508001A38F7EE006A77EEA67A27EE277A1BE007EE16
S31508001A48100AF8EE476A9FED276A86EE267A224B31
S31508001A581B6BC3F3080306EE903AF8EE666A9FED29
S31508001A68226A67EE867A76EEA77AF7EE006A77EE46
S31508001A78A67A27EE277A184B1B6BC3F3462301333E
S31508001A8807EE903AF8EE677AC7EE276AFCEEE67A2A
S31508001A9817EE900A704707EE100AF8EE476A9FEDA8
S31508001AA8146A86EE267A0C4B1B6BC3F3080306EEFC
S31508001AB8903AF8EE666A9FED0C6A67EE867A76EED5
S31508001AC8A77AF7EE006A77EEA67A27EE277AD2E79C
S31508001AD808487047024870470044025800093D0004
S31508001AE80090D0030024744A000000390024744C7E
S31508001AF820BCBE4B40787D01002800F029810346AA
S31508001B08974A126802F00F028A420BD29448026872
S31508001B1822F00F020A430260026802F00F028A42A4
S31508001B2840F0188170B51A6812F0040F0CD01869BD
S31508001B388C4A926902F07002904205D9894CA269CA
S31508001B4822F070021043A0611A6812F0080F0CD030
S31508001B585869844AD26902F07002904205D9814CC4
S31508001B68E26922F070021043E0611A6812F0100F59
S31508001B780CD098697B4AD26902F4E062904205D98A
S31508001B88784CE26922F4E0621043E0611A6812F0C0
S31508001B98200F0CD0D869734A126A02F07002904274
S31508001BA805D9704C226A22F07002104320621A681E
S31508001BB812F0020F0CD0D8686A4A926902F00F022E
S31508001BC8904205D9674CA26922F00F021043A0611A
S31508001BD81C460D461B6813F0010F41D0614A9369EC
S31508001BE823F47063A1680B4393616368022B0AD0D8
S31508001BF8032B27D0012B2CD05A4A126812F0040F4F
S31508001C0806D10120A3E0126812F4003F00F0A48070
S31508001C1854490A6922F0070213430B6101F0E4FEEE
S31508001C280646504B1B6903F038036268B3EBC20FCC
S31508001C3816D001F0D9FE801B41F288339842F0D9B4
S31508001C48032084E0474A126812F0007FE0D1012099
S31508001C587DE0444A126812F4807FD9D1012076E0E3
S31508001C68236813F0020F0CD0E2683E4B9B6903F019
S31508001C780F039A4205D23B498B6923F00F031A438F
S31508001C888A61374B1B6803F00F03AB420AD9344AFB
S31508001C98136823F00F032B431360136803F00F032D
S31508001CA8AB425BD1236813F0040F0CD022692D4B85
S31508001CB89B6903F070039A4205D22A498B6923F077
S31508001CC870031A438A61236813F0080F0CD06269F7
S31508001CD8244BDB6903F070039A4205D22149CB6984
S31508001CE823F070031A43CA61236813F0100F0CD047
S31508001CF8A2691C4BDB6903F4E0639A4205D21949C9
S31508001D08CB6923F4E0631A43CA61236813F0200FEA
S31508001D180CD0E269134B1B6A03F070039A4205D28A
S31508001D2810490B6A23F070031A430A62FFF7EEFD9F
S31508001D380C4B9B69C3F303230B4AD35C03F01F03BD
S31508001D48D8400A4B18600A4B1868FEF733FF70BD6F
S31508001D5801207047012070470120F8E70120F6E7BF
S31508001D680020005200440258843A0008340400242B
S31508001D7830040024144BDB6813F0010F09D0124B0A
S31508001D88124A5A6002F188325A60DB6813F0010F6A
S31508001D9814D10D4BD3F80C3113F0010F10D00A4BA0
S31508001DA80A4AC3F8042102F18832C3F80421D3F891
S31508001DB80C3113F0010F05D1002070470120704738
S31508001DC8002070470120704700200052230167450C
S31508001DD80D4BDA6842F00102DA60DB6813F0010F8E
S31508001DE80DD0094BD3F80C2142F00102C3F80C2197
S31508001DF8D3F80C3113F0010F03D0002070470120E7
S31508001E0870470120704700BF00200052F8B5054604
S31508001E180E4601F0E9FD0746012E09D0364C17E0B3
S31508001E2801F0E2FDC01BA84260D88DB903204EE038
S31508001E3804240DE0314BD3F8103124EA030333F0B8
S31508001E4800430CBF012300236BB1B5F1FF3FE7D16F
S31508001E5834F00403EED1294B1B6934EA03030CBF9B
S31508001E6801230023F0E7012E1CD0244BD3F81031A8
S31508001E7823F0684323F480135B0C5B0443F00043A8
S31508001E8833F0024217D1012E25D01C4BD3F8103156
S31508001E9813F4803F2ED0194B4FF48032C3F814211F
S31508001EA8002014E0154B1B6923F0684323F48013BC
S31508001EB85B0C5B04E4E712498A691A438A61002BBA
S31508001EC806DA23F000430D4AC2F814310120F8BD9A
S31508001ED80A4A5361FAE7094B1B6913F4803F07D08E
S31508001EE8064B4FF480325A610020F0E70320EEE7EC
S31508001EF80020ECE70020EAE70400008000200052F2
S31508001F08740504242C4B1B7D012B51D070B50C4647
S31508001F181546294B01221A7501F17841B1F5801F3A
S31508001F2838D21646244B00229A6131464CF2503074
S31508001F38FFF76CFF034640BB012E2DD01F4AD2F887
S31508001F480C3143F00203C2F80C31BFF36F8FBFF3AD
S31508001F584F8F082355F8042B44F8042B013B13F03C
S31508001F68FF03F7D1BFF36F8FBFF34F8F31464CF29C
S31508001F785030FFF74BFF0346012E13D00F49D1F80F
S31508001F880C2122F00202C1F80C210B4A0021117516
S31508001F98184670BD0226C5E7084AD36843F0020307
S31508001FA8D360D2E70549CA6822F00202CA60ECE79C
S31508001FB802231846704700BF7405042400200052FF
S31508001FC8134BDB6813F0040F07D1114BDB6803F0DA
S31508001FD8070383421AD00120704710B50C4AD36804
S31508001FE823F007031843D06001F0FEFC0446084BAB
S31508001FF85B6813F4005F07D101F0F6FC001BB0F527
S315080020087A7FF4D9012000E0002010BD002070472F
S3150800201800480258404B9B6A03F00303032B79D008
S3150800202870B50E4605463C4A136823F0806313606C
S3150800203801F0DAFC0446384B1B6813F0006F06D02B
S3150800204801F0D2FC001B0228F5D9032070BD324BDB
S315080020589A6A22F47C32296842EA01329A626A68E4
S31508002068013AC2F30802A9680139490289B20A4342
S31508002078E9680139090401F4FE010A4329690139A5
S31508002088090601F0FE410A439A63DA6A22F0C00299
S3150800209869690A43DA62DA6A22F02002A9690A43F8
S315080020A8DA62DA6A22F01002DA62D96B1B4A0A4047
S315080020B8E96942EAC102DA63DA6A42F01002DA62C8
S315080020C8C6B91A46DB6A43F40023D362124A136870
S315080020D843F08063136001F087FC04460E4B1B68C7
S315080020E813F0006F14D101F07FFC001B0228F5D904
S315080020F80320ABE7012E05D0074AD36A43F4001339
S31508002108D362E3E7044AD36A43F48013D362DDE76C
S3150800211800209BE701207047004402580700FFFF8C
S31508002128404B9B6A03F00303032B79D070B50E4620
S3150800213805463C4A136823F08053136001F054FCA3
S315080021480446384B1B6813F0005F06D001F04CFCB8
S31508002158001B0228F5D9032070BD324B9A6A22F073
S315080021687C72296842EA01529A626A68013AC2F39D
S315080021780802A9680139490289B20A43E968013996
S31508002188090401F4FE010A4329690139090601F01F
S31508002198FE410A431A64DA6A22F4406269690A4304
S315080021A8DA62DA6A22F40072A9690A43DA62DA6A32
S315080021B822F48072DA62596C1B4A0A40E96942EAD3
S315080021C8C1025A64DA6A42F48072DA62C6B91A46F1
S315080021D8DB6A43F48003D362124A136843F08053D8
S315080021E8136001F001FC04460E4B1B6813F0005FF0
S315080021F814D101F0F9FB001B0228F5D90320ABE737
S31508002208012E05D0074AD36A43F08073D362E3E701
S31508002218044AD36A43F40003D362DDE700209BE748
S3150800222801207047004402580700FFFFF8B5044626
S31508002238036813F0006F31D0436EB3F5801F1ED0C4
S315080022480FD9B3F5001F23D0B3F5401F14D10025C5
S31508002258994A136D23F44013616E0B4313650026E0
S315080022681EE033B9944AD36A43F40033D36200258F
S31508002278EEE70126354613E00126354610E0022129
S315080022880430FFF7C7FE0546002DE1D02E4607E0C5
S3150800229802212430FFF744FF0546F5E700263546B0
S315080022A8236813F4807F14D0636D042B2FD8DFE8D6
S315080022B803F00321270808007F4AD36A43F400334A
S315080022C8D3623DBB7C4A136D23F00703616D0B434C
S315080022D81365236813F4007F28D0A36D802B48D094
S315080022E81DD8C3B3402B17D10021201DFFF792FE36
S315080022F8054635E00021201DFFF78CFE0546E0E778
S31508002308002104F12400FFF70BFF0546D9E701264B
S315080023183546DEE72E46DCE70126354606E0C02BBD
S315080023281ED0B3F5807F1BD001263546236813F4E3
S31508002338806F32D0D4F8A430B3F5800F51D024D8A2
S31508002348002B3FD0B3F5001F1CD10021201DFFF735
S3150800235861FE05463BE0584AD36A43F40033D36224
S3150800236875B9554A136D23F4E073A16D0B431365CC
S31508002378DCE7002104F12400FFF7D2FE0546EFE763
S315080023882E46D3E70126354607E0B3F5C00F1ED01B
S31508002398B3F5000F1BD001263546236813F4006FE2
S315080023A833D0D4F8A830B3F1007F4CD025D8002B09
S315080023B83AD0B3F1807F1DD10021201DFFF72AFEF0
S315080023C8054636E03C4AD36A43F40033D3627DB9FE
S315080023D8394A936D23F46003D4F8A4100B43936524
S315080023E8DBE7002104F12400FFF79AFE0546EEE72D
S315080023F82E46D2E70126354607E0B3F1407F18D0C6
S31508002408B3F1806F15D001263546236813F0007F8F
S3150800241825D0A36C102B36D01ED9202B41D0302BB3
S3150800242836D0012635461AE0234AD36A43F40033E0
S31508002438D3627DB9204A936D23F0E063D4F8A810D7
S315080024480B439365E1E7002104F12400FFF768FED2
S315080024580546EEE72E46D8E7D3B101263546236862
S3150800246813F4805F32D0E36DB3F5005F58D025D8F2
S31508002478002B47D0B3F5805F1BD10021201DFFF73D
S31508002488C9FD054643E00C4AD36A43F40033D362D0
S315080024986DB9094AD36C23F03003A16C0B43D36496
S315080024A8DDE70221201DFFF7B5FD0546F0E72E46B4
S315080024B8D5E70126354609E000440258B3F5405FDA
S315080024C825D0B3F5804F22D001263546236813F464
S315080024D8005F3CD0236EB3F5003F56D02CD83BB1ED
S315080024E8B3F5803F25D10121201DFFF793FD054649
S315080024F8002D51D1964A136D23F4E023216E0B4320
S31508002508136524E0924AD36A43F40033D36275B953
S315080025188F4A136D23F4E043E16D0B431365D5E742
S31508002528002104F12400FFF7FBFD0546EFE72E46D8
S31508002538CCE7012635460AE0B3F5802FD8D0B3F59F
S31508002548A02FD5D0B3F5403FD2D00126354623680B
S3150800255813F4804F30D0D4F8AC30B3F1005F44D0D0
S315080025681FD83BB1B3F1805F18D10121201DFFF7B1
S3150800257851FD0546002D3FD1754A936D23F0E0437A
S31508002588D4F8AC100B43936516E0012104F1240036
S31508002598FFF7C6FD0546ABE72E46D8E701263546BA
S315080025A80AE0B3F1804FE5D0B3F1A04FE2D0B3F11A
S315080025B8405FDFD001263546236813F4004F09D05B
S315080025C8E36EB3F1805F19D0B3F1005F24D0D3B1BD
S315080025D801263546236813F0807F3DD0636C032BAC
S315080025E836D8DFE803F026212F26012104F1240036
S315080025F8FFF796FD0546BDE72E46DDE7544AD36A3A
S3150800260843F40033D3626DB9514A136D23F040532E
S31508002618E16E0B431365DDE70121201DFFF7FAFC80
S315080026280546F0E72E46D5E7494AD36A43F4003308
S31508002638D36285B9464AD36C23F00303616C0B430E
S31508002648D36409E00221201DFFF7E4FC0546F0E7FC
S315080026580126354600E02E46236813F4800F1FD15D
S31508002668236813F0010F00F09E80A36F282B00F251
S315080026789680DFE803F084949494949494947F94D1
S315080026889494949494948D9494949494949484940B
S315080026989494949494948494949494949494840098
S315080026A82C4A136843F48073136001F09DF90746B2
S315080026B8284B1B6813F4807F05D101F095F9C01BD8
S315080026C86428F5D90325002D50D1214B1B6FD4F862
S315080026D8B020534013F4407F0CD01D4B1A6F22F4D8
S315080026E84072196F41F480311967196F21F48031E6
S315080026F819671A67D4F8B030B3F5807F16D0002D5D
S3150800270836D1D4F8B03003F44072B2F5407F23D0FE
S315080027180F4A136923F47C5313610D490B6FD4F8D8
S31508002728B020C2F30B0213430B6799E701F05CF973
S315080027380746074B1B6F13F0020FE0D101F054F957
S31508002748C01B41F288339842F3D90325D7E700BF5F
S3150800275800440258004802587F48026922F47C520D
S315080027687E4901EA131313430361D6E72E4677E732
S315080027782E4675E70121201DFFF74CFC05468DB945
S31508002788754A536D23F03803A16F0B4353650AE066
S31508002798012104F12400FFF7C3FC0546EFE70126EB
S315080027A8354600E02E46236813F0020F20D0636FE3
S315080027B8052B19D8DFE803F00803110808080121D2
S315080027C8201DFFF727FC05468DB9634A536D23F08C
S315080027D80703616F0B4353650AE0012104F12400DE
S315080027E8FFF79EFC0546EFE70126354600E02E462C
S315080027F8236813F0040F22D0D4F89030052B1AD882
S31508002808DFE803F00803120808080121201DFFF76E
S3150800281801FC054695B9504A936D23F00703D4F889
S3150800282890100B4393650AE0012104F12400FFF791
S3150800283877FC0546EEE70126354600E02E4623686E
S3150800284813F0200F27D0D4F88C30B3F1005F40D0AE
S3150800285816D83BB1B3F1805F0FD10021201DFFF7D1
S31508002868D9FB0546002D3BD13B4A536D23F0E0437F
S31508002878D4F88C100B4353650DE0012635460AE05B
S31508002888B3F1804FEED0B3F1A04FEBD0B3F1405F70
S31508002898E8D001263546236813F0400F30D0D4F81F
S315080028A89830B3F5006F4BD01FD83BB1B3F5806F9E
S315080028B818D10021201DFFF7ADFB0546002D46D18E
S315080028C8254A936D23F4E053D4F898100B4393657F
S315080028D816E0022104F12400FFF722FC0546C1E7A9
S315080028E82E46D8E7012635460AE0B3F5805FE5D0D7
S315080028F8B3F5A05FE2D0B3F5406FDFD001263546C1
S31508002908236813F0800F36D0D4F89C30B3F5804F7F
S3150800291800F0988024D83BB1B3F5005F19D100219F
S31508002928201DFFF777FB0546002D40F092800A4ADE
S31508002938936D23F46043D4F89C100B4393651AE00F
S31508002948022104F12400FFF7EBFB0546B6E72E46FD
S31508002958D6E7012635460EE000440258CFFFFF00A9
S31508002968B3F5004FE0D0B3F5204FDDD0B3F5C04F2F
S31508002978DAD001263546236813F0080F0CD0D4F8A8
S315080029888030B3F5805F66D0864A536D23F440538A
S31508002998D4F880100B435365236813F0100F0CD036
S315080029A8D4F89430B3F5807F5ED07E4A936D23F4CD
S315080029B84073D4F894100B439365236813F4002FD7
S315080029C80BD0D4F8A030B3F5803F65D0B3F5003FF7
S315080029D858D0002B51D001263546236813F4802F8A
S315080029E80CD0D4F88430B3F5001F6DD0B3F5401F6A
S315080029F860D0B3F5801F58D001263546236813F4EE
S31508002A08803F07D0E36C002B67D0B3F5803F72D0C0
S31508002A1801263546236813F0005F74D1236813F43A
S31508002A28003F7CD0E36FB3F5807F00F0A38073D9AD
S31508002A38B3F5007F00F0A380B3F5407F00F09F80D0
S31508002A4801266CE0022104F12400FFF769FB05461C
S31508002A586AE72E468FE7022104F12400FFF760FB98
S31508002A68002891D001268FE7022104F12400FFF7F8
S31508002A7857FB002899D0012697E70021201DFFF764
S31508002A88C9FA05467DB9474A936D23F44033D4F805
S31508002A98A0100B439365A0E7022104F12400FFF771
S31508002AA83FFB0546EEE72E4697E73E4AD36A43F4C8
S31508002AB80033D3627DB93B4A536D23F44013D4F8E7
S31508002AC884100B43536599E7012104F12400FFF7A5
S31508002AD827FB0546EEE72E4690E7324AD36A43F4C3
S31508002AE80033D3626DB92F4AD36C23F48033E16C73
S31508002AF80B43D3648EE70221201DFFF78BFA0546A0
S31508002B08F0E72E4686E7022104F12400FFF708FBC2
S31508002B18002883D0012681E7002B30D001262368B8
S31508002B2813F4801F06D01F4A136D23F00043216F44
S31508002B380B431365236813F4001F06D0194A136D4F
S31508002B4823F08073A16E0B431365236813F0804F37
S31508002B5809D0144B1A6922F400421A611A69D4F882
S31508002B68B8100A431A612368002B13DB06B101263D
S31508002B783046F8BD0B4AD36A43F40033D3623DB9ED
S31508002B88084A536D23F44073E16F0B435365C6E750
S31508002B982E46C4E7034AD36C23F04053216D0B43F2
S31508002BA8D364E3E70044025801F00303032B24D057
S31508002BB811F0010F0BD01D4BDA6822F03002DA60EB
S31508002BC8DA680243DA60DA6842F08802DA6011F0F5
S31508002BD8020F11D0154BD3F80C2122F03002C3F896
S31508002BE80C21D3F80C211043C3F80C01D3F80C2197
S31508002BF842F08802C3F80C2170470C4BDA6822F0B9
S31508002C083002DA60D3F80C2122F03002C3F80C211E
S31508002C18DA680243DA60D3F80C211043C3F80C01CA
S31508002C289A6942F010029A61704700BF0020005264
S31508002C3830B411F0010F0BD0104DEB6823F4E6639E
S31508002C48EB60EC6842EA00231C4344F08404EC6019
S31508002C5811F0020F0FD00949D1F80C3123F4E663B5
S31508002C68C1F80C31D1F80C3142EA0022134343F07B
S31508002C788403C1F80C3130BC704700BF00200052ED
S31508002C88F8B5474B1B7D012B00F088800F46044694
S31508002C98434B01221A7500229A61436813F0010F03
S31508002CA80DD10026636813F0020F12D1CEB9236836
S31508002CB8012B1BD04FF0FF333B60A56859E0012173
S31508002CC84CF25030FFF7A2F806460028EAD001264B
S31508002CD8E8E702214CF25030FFF798F80028E5D0CB
S31508002CE801262F4B00221A753046F8BD61682069FF
S31508002CF8FFF75AFF636813F0010F12D1636813F0E0
S31508002D08020FEED002214CF25030FFF77FF800B1DF
S31508002D180126244AD2F80C3123F00803C2F80C31EC
S31508002D28DFE701214CF25030FFF770F800B10126B1
S31508002D381C4AD36823F00803D360DFE701214CF265
S31508002D485030FFF763F80646164AD168164B0B400B
S31508002D58D3601CE002214CF25030FFF757F80646BC
S31508002D68104AD2F80C11104B0B40C2F80C319EB918
S31508002D780135E368A2681344AB42B2D9226961688F
S31508002D882846FFF755FF636813F0010FD6D1636825
S31508002D9813F0020FEBD0DDE73D60A2E70226A3E7B2
S31508002DA87405042400200052FBF8FFFF184AD2F8DD
S31508002DB8883043F47003C2F88830164B1A6842F014
S31508002DC801021A6000221A6118681349014019603D
S31508002DD89A61DA611A629A62DA621A635A639A63BC
S31508002DE8DA631A645A64196821F4802119601A6624
S31508002DF80A4B1A680A4B1340B3F1005F02D2094B13
S31508002E0801221A60024B4FF000629A60704700BFB1
S31508002E1800ED00E0004402587FEDF6EA0010005C79
S31508002E280000FFFF08810051014B00225A707047C5
S31508002E3864040024034BFE22DA7018710222A3F8F0
S31508002E48442070476404002410B5054C00232370F9
S31508002E58FFF7EAFFFF23E3700123A4F8443010BD07
S31508002E6864040024064BFF22DA7000221A71597886
S31508002E7859719A71DA711A720622A3F844207047B2
S31508002E886404002408B50020FFF7D4FF08BD000035
S31508002E98074BFF22DA70074A9A6400221A715A7198
S31508002EA89A710722C3F807200822A3F84420704716
S31508002EB864040024943A0008044BFF22DA70426836
S31508002EC89A640122A3F84420704700BF64040024CA
S31508002ED808B53120FFF7AEFF08BD000038B5084C25
S31508002EE8FF23E37000252571657100F009FAA071C2
S31508002EF8E571257265720723A4F8443038BD00BF0A
S31508002F086404002438B5FFF78FFF0E4C0125257099
S31508002F18FF23E370102323710023637100F0F0F98F
S31508002F28A07100F0FFF9E07100F0FCF9C0F3072082
S31508002F3820726572A5720823A4F8443000F030FAA6
S31508002F4838BD00BF6404002438B5054600F0D8F932
S31508002F586A7890420FD90A4CA16C201D00F062FAD3
S31508002F68FF23E3706A78A36C1344A3646B78013370
S31508002F78A4F8443038BD2220FFF75CFFFAE700BF03
S31508002F886404002438B5044600F0BAF96378984210
S31508002F9811D961680A4DA9646278281D00F042FAB9
S31508002FA8FF23EB706278AB6C1344AB646378013328
S31508002FB8A5F8443038BD2220FFF73CFFFAE700BFE2
S31508002FC864040024F8B50546174600244E1E39B190
S31508002FD815F8013B1C44E4B200F0DAF93146F5E786
S31508002FE83C600120F8BD000010B5084CFF23E370CB
S31508002FF8E21D4168A06CFFF7E5FF207100236371A5
S31508003008A3710823A4F8443010BD00BF6404002443
S3150800301838B505460D4B9C6C00F072F96A1C411EC2
S31508003028204600F0C1F960B1084CFF23E37000F0B0
S3150800303867F90138A36C0344A3640123A4F8443050
S3150800304838BD3120FFF7F6FEFAE700BF640400240E
S3150800305810B5044600F054F901386378984213DD30
S31508003068114BFF22DA700122A3F84420617879B15E
S31508003078A21C0D4B986C00F097F988B161780A4A3A
S31508003088936C0B44936410BD2220FFF7D3FEFAE72E
S3150800309800F09AF90028F6D13120FFF7CBFEF2E7BF
S315080030A83120FFF7C7FEEEE76404002408B5416837
S315080030B8074B986C00F07CF930B1054BFF22DA70A3
S315080030C80122A3F8442008BD3120FFF7B3FEFAE72A
S315080030D86404002408B500F087F9034BFF22DA7068
S315080030E80122A3F8442008BD6404002408B589B25F
S315080030F800F0F8F808BD0000054B00221A709A641B
S3150800310883F84320A3F844209A705A70704700BF82
S3150800311864040024024B187800B10120704700BFE8
S3150800312864040024024B002283F84320704700BF3A
S315080031386404002408B50378FF2B23D0354A12788F
S31508003148012A2BD1C93B352B53D8DFE803F0405267
S31508003158524F52524C434946525252525252525266
S315080031685252525252525252525252525252525229
S315080031785252525252525252312B282E52525234CD
S3150800318852373A3DFFF7BEFE224B93F84330012BE0
S3150800319833D0204BB3F94410002932DC08BDFFF7B9
S315080031A8D3FEF1E7FFF7EEFEEEE7FFF785FEEBE75E
S315080031B8FFF71AFFE8E7FFF76BFEE5E7FFF762FE9A
S315080031C8E2E7FFF74FFEDFE7FFF73EFEDCE7FFF72C
S315080031D81FFFD9E7FFF73CFFD6E7FFF77FFED3E7E0
S315080031E8FFF764FFD0E7FFF775FFCDE7FFF770FE37
S315080031F8CAE72020FFF71EFEC6E71020FFF71AFECB
S31508003208C7E71846012380F843300330FFF76EFFF7
S31508003218C4E700BF6404002408B500F095F801283F
S3150800322803D00B4B1B78012B00D008BD00F0D4FB4C
S31508003238084B1B68084A1268134403F5FA73984240
S31508003248F3D3034B00221A7000F0CEF8EDE700BF5F
S31508003258B4040024B0040024B804002408B5054BB7
S315080032681B78012B00D008BD00F0B6FB024B18608E
S31508003278F9E700BFB4040024B804002408B5044BD1
S3150800328801221A70FFF7EAFFFFF7C6FF08BD00BF5D
S31508003298B404002408B5FFF72FFF00F0DBFA024B49
S315080032A800221A7008BD00BF3C04002400B583B08C
S315080032B80DF10701084800F013FB012802D003B0F6
S315080032C85DF804FB054B00221A709DF807100248A2
S315080032D8FFF730FFF3E700BFBC0400243C040024D2
S315080032E87047000008B5054B1B7813B1FFF71AFF9E
S315080032F808BDC9B200F0D8FAF8E700BF3C040024B4
S31508003308074B1B78022B05D0032B05D0012B05D0BC
S3150800331840207047002070470020704700207047FB
S315080033283C040024074B1B78022B05D0032B05D039
S31508003338012B05D0402070470020704700207047B1
S31508003348002070473C04002408B5FFF7E3FE03464F
S3150800335800B10123184608BD08B500F040F800F08A
S3150800336813F800F019FB00F01BF8FFF793FFFFF7B7
S3150800337885FF08BD08B500F00BF800F01FFBFFF73E
S3150800338895FFFFF749FF08BD08B5FDF77BFA08BDA5
S3150800339808B5FDF77CFA08BD08B5FFF7F9FFFCE79D
S315080033A808B500F05DF908BD08B500F065F908BD6F
S315080033B808B500F095F908BD08B500F0D5F908BDB7
S315080033C808B500F01FFA08BD08B500F0A7F90346C6
S315080033D808B9184608BD00F0F3F90346F9E708B531
S315080033E800F007FB08BD000010B5FFF7E5FF00B9B8
S315080033F810BDFDF737FA0028FAD0FFF771FF00F07D
S31508003408C5FAFFF7DDFF054B0340054A9360FFF74A
S31508003418D7FF446800F0EFFAA047E9E780FFFF1FE7
S3150800342800ED00E070B50D460446531E9EB23AB14B
S3150800343815F8013B04F8013BFFF7AAFF3246F4E703
S3150800344870BD000038B50546002401E00134E4B231
S315080034580E2C15D8FFF79CFF04EB44029300094A83
S31508003468D358AB42F2D804EB44029100054A0A4401
S3150800347852681344AB42E9D9024B0B44187A00E068
S31508003488FF2038BD9C3A000870B50D460446561EFE
S315080034983AB115F8013B04F8013BFFF779FF3246C4
S315080034A8F5E770BD08B5C1F3100353B903688B4235
S315080034B809D040F8041B4FF40032FFF7E5FF012056
S315080034C808BD0020FCE70120FAE72DE9F04188B09D
S315080034D88046FEF74FFC002700E00137B7F5805F06
S315080034E826D2D8F800607C0126444444FFF750FFEA
S315080034F86D4654F8040F6168A268E3680FC5206929
S315080035086169A269E3690FC56A4631460120FEF773
S31508003518F9FC30B920223146204600F06EFA002818
S31508003528DBD00024FEF754FC204608B0BDE8F0813D
S315080035380124F7E738B50D460C4B984211D00446D6
S315080035480B4B994207D1094C29462046FFF7AAFF93
S3150800355848B1204638BDFFF7B8FF0028F4D1002443
S31508003568F7E7044CF0E70024F3E700BF0005022458
S3150800357800000208FC0400242DE9F04106460C4622
S3150800358817461D46DFF8748001EA08080368B3F190
S31508003598FF3F07D0336843450BD13368E41A3444F0
S315080035A8043415E04146FFF77DFF03460028F1D1AC
S315080035B81FE041463046FFF7BDFF06460028ECD116
S315080035C8002316E017F8013B04F8013B013D0FD02C
S315080035D8FFF7DEFE331DE31AB3F5003FF2D308F50D
S315080035E800313046FFF7A6FF064628B1041DE9E76D
S315080035F801231846BDE8F0810023FAE70000FEFF1C
S3150800360870B586B004460D4600230093884206D84E
S3150800361801260CB30F2D1ED81EB934461CE0002609
S31508003628F7E7002301932023059301230493FEF764
S31508003638A1FBAC420BD8FFF7ABFE0394694601A879
S31508003648FFF71EFB10B90134E4B2F2E70026FEF7CD
S31508003658BFFB344600E00024204606B070BD0000D3
S315080036684FF0FF33024A1360024A1360704700BFDF
S31508003678FC0400240005022470B54B1E134C241ABA
S31508003688A34201D9002070BD16460D460446FFF729
S31508003698D9FEFF2811D028190138FFF7D3FEFF28CD
S315080036A80BD00B4B23400B4A934208D02B46324685
S315080036B821460948FFF760FFE5E70020E3E72B46C0
S315080036C8324621460548FFF757FFDCE7FFFF1F0884
S315080036D80000FEFF00000208FC040024000502247E
S315080036E84A1E0D4B1B1A9A4201D90020704770B51D
S315080036F80C460546FFF7A6FE064660190138FFF789
S31508003708A1FEFF2818BFFF2E01D1002070BD014673
S315080037183046FFF775FFF9E7FFFF1F08104B1B68D0
S31508003728B3F1FF3F19D000B583B00D4A53689168C5
S315080037380B44D1680B4411690B4451690B449169D0
S315080037480B44D26913445B42019301AA0421054834
S31508003758FFF792FF03B05DF804FB0120704700BF2E
S3150800376800050224F80102080D4B1B680D4A126869
S315080037781A440D4B1B6813440C4A126813440C4A26
S3150800378812681A440B4B1B681A440B4B1B681344E4
S315080037980A4A1268DA4201D00020704701207047A9
S315080037A80000020804000208080002080C000208C3
S315080037B8100002081400020818000208F801020896
S315080037C808B50E4B1B68B3F1FF3F07D10C4B1B68B6
S315080037D8B3F1FF3F09D10123184608BD0748FFF78B
S315080037E874FE03460028F1D1F6E70548FFF76DFE93
S315080037F803460028F0D00123EEE700BF000502249F
S31508003808FC0400240048704700000208054BDB69E1
S3150800381813F0200F04D0034B5B6A0370012070472E
S31508003828002070470044004010B5094B986200F024
S31508003838D3F800F10A04064BDB6913F0800F05D1AB
S31508003848FFF7A6FD00F0C8F8A042F4D910BD00BFDE
S315080038580044004010B588B0002300934FF4E132C5
S3150800386801920293039304930C22059206930793F5
S315080038780C4C69462046FDF7A5FCA36843F480531B
S31508003888A360236843F001032360064BDB6913F43E
S31508003898001FFAD0034BDB6913F4800FF5D008B084
S315080038A810BD00BF0044004070B506460D464029C5
S315080038B80ED82846FFF7B8FF0024ABB2A3420CD9A6
S315080038C8FFF766FD305DFFF7AFFF0134A4B2F4E7F2
S315080038D888210248FFF760FDEBE770BD503B0008FA
S315080038E870B5254B1C78BCB92448FFF78FFF01280B
S315080038F801D0204670BD214B1B78013BDBB23F2B1C
S31508003908F7D800F069F81E4B18601E4B00221A708B
S31508003918194B01221A70ECE706460D46194B1B7817
S31508003928013316481844FFF771FF0446012815D1D4
S31508003938144B1A780132D2B21A70104B1B789A4275
S3150800394801D00024D5E710493046FFF76BFD0A4B2E
S3150800395800221A700B4B1B782B70CAE700F03CF84C
S31508003968074B1B686433984203D90024024B1C7022
S31508003978BFE70024BDE700BF450504240405042461
S31508003988480504244605042405050424014B002299
S315080039981A60704710E000E008B5FFF7F7FF054B17
S315080039A84FF6FF125A6000229A6005211960024BE9
S315080039B81A6008BD10E000E04C050424044B1B6897
S315080039C813F4803F03D0034A136801331360704722
S315080039D810E000E04C05042408B5FFF7EFFF014B9B
S315080039E8186808BD4C05042408B5FFF7F5FF08BD97
S315080039F8704772B6704762B6704730B50139002409
S31508003A08A24201D1002005E0035D01340D5DAB42F9
S31508003A18F6D0581B30BD0000F8B500BFF8BC08BC86
S31508003A289E467047F8B500BFF8BC08BC9E46704766
S31508003A38000000246D61696E2E6300000000000016
S31508003A48010203040102030406070809010000002D
S31508003A58020000000400000006000000080000003C
S31508003A680A0000000C0000001000000020000000FA
S31508003A78400000008000000000010000000000006F
S31508003A880102030401020304060708094F70656E5C
S31508003A98424C540000000208000002000100000021
S31508003AA800000408000002000200000000000608E2
S31508003AB800000200030000000000080800000200D9
S31508003AC80400000000000A080000020005000000C3
S31508003AD800000C08000002000600000000000E089E
S31508003AE8000002000700000000001008000002009D
S31508003AF80800000000001208000002000900000083
S31508003B0800001408000002000A0000000000160859
S31508003B18000002000B000000000018080000020060
S31508003B280C00000000001A08000002000D00000042
S31508003B3800001C08000002000E00000000001E0815
S31508003B48000002000F0000002E2E2F2E2E2F2E2EDC
S31508003B582F536F757263652F41524D434D375F5327
S31508003B68544D333248372F72733233322E6300007E
S30D08003B78C1030008BD020008A4
S30908003B809902000890
S31508003B8400000000EC02002454030024BC030024B3
S31508003B940000000000000000000000000000000013
S31508003BA40000000000000000000000000000000003
S31508003BB400000000000000000000000000000000F3
S31508003BC400000000000000000000000000000000E3
S31508003BD400000000000000000000000000000000D3
S31508003BE400000000000000000000000000000000C3
S31508003BF400000000000000000000000000000000B3
S31508003C0400000000000000000000000000000000A2
S31508003C140000000000000000000000000000000092
S31508003C240000000000000000010000000000000081
S31508003C340E33CDAB34126DE6ECDE05000B00000046
S31508003C440000000000000000000000000000000062
S31508003C540000000000000000000000000000000052
S31508003C640000000000000000000000000000000042
S31508003C740000000000000000000000000000000032
S31508003FA40000000000000000500504240100000081
S31508003FB4100000000090D0030090D0030400000015
S705080004A549
